{
  "contractName": "TestToken",
  "abi": [
    {
      "inputs": [
        {
          "name": "_owner",
          "type": "address"
        },
        {
          "name": "_name",
          "type": "string"
        },
        {
          "name": "_symbol",
          "type": "string"
        },
        {
          "name": "_decimals",
          "type": "uint8"
        },
        {
          "name": "_initial_supply",
          "type": "uint256"
        },
        {
          "name": "_allowMinting",
          "type": "bool"
        }
      ],
      "payable": false,
      "stateMutability": "nonpayable",
      "type": "constructor"
    },
    {
      "anonymous": false,
      "inputs": [
        {
          "indexed": true,
          "name": "from",
          "type": "address"
        },
        {
          "indexed": true,
          "name": "to",
          "type": "address"
        },
        {
          "indexed": false,
          "name": "value",
          "type": "uint256"
        }
      ],
      "name": "Transfer",
      "type": "event"
    },
    {
      "anonymous": false,
      "inputs": [
        {
          "indexed": true,
          "name": "owner",
          "type": "address"
        },
        {
          "indexed": true,
          "name": "spender",
          "type": "address"
        },
        {
          "indexed": false,
          "name": "value",
          "type": "uint256"
        }
      ],
      "name": "Approval",
      "type": "event"
    },
    {
      "anonymous": false,
      "inputs": [
        {
          "indexed": false,
          "name": "from",
          "type": "address"
        },
        {
          "indexed": false,
          "name": "to",
          "type": "address"
        }
      ],
      "name": "OwnerChange",
      "type": "event"
    },
    {
      "anonymous": false,
      "inputs": [
        {
          "indexed": true,
          "name": "burner",
          "type": "address"
        },
        {
          "indexed": false,
          "name": "value",
          "type": "uint256"
        }
      ],
      "name": "Burn",
      "type": "event"
    },
    {
      "anonymous": false,
      "inputs": [
        {
          "indexed": false,
          "name": "mintingClosed",
          "type": "bool"
        }
      ],
      "name": "MintingClosed",
      "type": "event"
    },
    {
      "anonymous": false,
      "inputs": [
        {
          "indexed": false,
          "name": "msg",
          "type": "string"
        }
      ],
      "name": "ErrorMsg",
      "type": "event"
    },
    {
      "constant": true,
      "inputs": [],
      "name": "totalSupply",
      "outputs": [
        {
          "name": "",
          "type": "uint256"
        }
      ],
      "payable": false,
      "stateMutability": "view",
      "type": "function"
    },
    {
      "constant": true,
      "inputs": [
        {
          "name": "who",
          "type": "address"
        }
      ],
      "name": "balanceOf",
      "outputs": [
        {
          "name": "",
          "type": "uint256"
        }
      ],
      "payable": false,
      "stateMutability": "view",
      "type": "function"
    },
    {
      "constant": true,
      "inputs": [
        {
          "name": "owner",
          "type": "address"
        },
        {
          "name": "spender",
          "type": "address"
        }
      ],
      "name": "allowance",
      "outputs": [
        {
          "name": "",
          "type": "uint256"
        }
      ],
      "payable": false,
      "stateMutability": "view",
      "type": "function"
    },
    {
      "constant": false,
      "inputs": [
        {
          "name": "to",
          "type": "address"
        },
        {
          "name": "value",
          "type": "uint256"
        }
      ],
      "name": "transfer",
      "outputs": [
        {
          "name": "ok",
          "type": "bool"
        }
      ],
      "payable": false,
      "stateMutability": "nonpayable",
      "type": "function"
    },
    {
      "constant": false,
      "inputs": [
        {
          "name": "from",
          "type": "address"
        },
        {
          "name": "to",
          "type": "address"
        },
        {
          "name": "value",
          "type": "uint256"
        }
      ],
      "name": "transferFrom",
      "outputs": [
        {
          "name": "ok",
          "type": "bool"
        }
      ],
      "payable": false,
      "stateMutability": "nonpayable",
      "type": "function"
    },
    {
      "constant": false,
      "inputs": [
        {
          "name": "spender",
          "type": "address"
        },
        {
          "name": "value",
          "type": "uint256"
        }
      ],
      "name": "approve",
      "outputs": [
        {
          "name": "ok",
          "type": "bool"
        }
      ],
      "payable": false,
      "stateMutability": "nonpayable",
      "type": "function"
    }
  ],
  "bytecode": "0x6060604052341561000f57600080fd5b60405161092638038061092683398101604052808051906020019091908051820191906020018051820191906020018051906020019091908051906020019091908051906020019091905050600073__TokenLib______________________________639329297290918888888888886040518863ffffffff167c0100000000000000000000000000000000000000000000000000000000028152600401808881526020018773ffffffffffffffffffffffffffffffffffffffff1673ffffffffffffffffffffffffffffffffffffffff16815260200180602001806020018660ff1660ff16815260200185815260200184151515158152602001838103835288818151815260200191508051906020019080838360005b83811015610142578082015181840152602081019050610127565b50505050905090810190601f16801561016f5780820380516001836020036101000a031916815260200191505b50838103825287818151815260200191508051906020019080838360005b838110156101a857808201518184015260208101905061018d565b50505050905090810190601f1680156101d55780820380516001836020036101000a031916815260200191505b50995050505050505050505060006040518083038186803b15156101f857600080fd5b5af4151561020557600080fd5b5050505050505050506107098061021d6000396000f300606060405260043610610078576000357c0100000000000000000000000000000000000000000000000000000000900463ffffffff168063095ea7b31461007d57806318160ddd146100d757806323b872dd1461010057806370a0823114610179578063a9059cbb146101c6578063dd62ed3e14610220575b600080fd5b341561008857600080fd5b6100bd600480803573ffffffffffffffffffffffffffffffffffffffff1690602001909190803590602001909190505061028c565b604051808215151515815260200191505060405180910390f35b34156100e257600080fd5b6100ea610355565b6040518082815260200191505060405180910390f35b341561010b57600080fd5b61015f600480803573ffffffffffffffffffffffffffffffffffffffff1690602001909190803573ffffffffffffffffffffffffffffffffffffffff16906020019091908035906020019091905050610361565b604051808215151515815260200191505060405180910390f35b341561018457600080fd5b6101b0600480803573ffffffffffffffffffffffffffffffffffffffff1690602001909190505061045f565b6040518082815260200191505060405180910390f35b34156101d157600080fd5b610206600480803573ffffffffffffffffffffffffffffffffffffffff1690602001909190803590602001909190505061051f565b604051808215151515815260200191505060405180910390f35b341561022b57600080fd5b610276600480803573ffffffffffffffffffffffffffffffffffffffff1690602001909190803573ffffffffffffffffffffffffffffffffffffffff169060200190919050506105e8565b6040518082815260200191505060405180910390f35b60008073__TokenLib______________________________638ca979ca909185856040518463ffffffff167c0100000000000000000000000000000000000000000000000000000000028152600401808481526020018373ffffffffffffffffffffffffffffffffffffffff1673ffffffffffffffffffffffffffffffffffffffff168152602001828152602001935050505060206040518083038186803b151561033657600080fd5b5af4151561034357600080fd5b50505060405180519050905092915050565b60008060050154905090565b60008073__TokenLib______________________________6321a6a23d90918686866040518563ffffffff167c0100000000000000000000000000000000000000000000000000000000028152600401808581526020018473ffffffffffffffffffffffffffffffffffffffff1673ffffffffffffffffffffffffffffffffffffffff1681526020018373ffffffffffffffffffffffffffffffffffffffff1673ffffffffffffffffffffffffffffffffffffffff16815260200182815260200194505050505060206040518083038186803b151561043f57600080fd5b5af4151561044c57600080fd5b5050506040518051905090509392505050565b60008073__TokenLib______________________________633af00d0f9091846040518363ffffffff167c0100000000000000000000000000000000000000000000000000000000028152600401808381526020018273ffffffffffffffffffffffffffffffffffffffff1673ffffffffffffffffffffffffffffffffffffffff1681526020019250505060206040518083038186803b151561050157600080fd5b5af4151561050e57600080fd5b505050604051805190509050919050565b60008073__TokenLib______________________________63d4b1770a909185856040518463ffffffff167c0100000000000000000000000000000000000000000000000000000000028152600401808481526020018373ffffffffffffffffffffffffffffffffffffffff1673ffffffffffffffffffffffffffffffffffffffff168152602001828152602001935050505060206040518083038186803b15156105c957600080fd5b5af415156105d657600080fd5b50505060405180519050905092915050565b60008073__TokenLib______________________________63ac9b44f7909185856040518463ffffffff167c0100000000000000000000000000000000000000000000000000000000028152600401808481526020018373ffffffffffffffffffffffffffffffffffffffff1673ffffffffffffffffffffffffffffffffffffffff1681526020018273ffffffffffffffffffffffffffffffffffffffff1673ffffffffffffffffffffffffffffffffffffffff168152602001935050505060206040518083038186803b15156106be57600080fd5b5af415156106cb57600080fd5b505050604051805190509050929150505600a165627a7a7230582018592e88b34ef6f9e001c751d764985f55ee79b8db29dabe93bed5486daeb1b80029",
  "deployedBytecode": "0x606060405260043610610078576000357c0100000000000000000000000000000000000000000000000000000000900463ffffffff168063095ea7b31461007d57806318160ddd146100d757806323b872dd1461010057806370a0823114610179578063a9059cbb146101c6578063dd62ed3e14610220575b600080fd5b341561008857600080fd5b6100bd600480803573ffffffffffffffffffffffffffffffffffffffff1690602001909190803590602001909190505061028c565b604051808215151515815260200191505060405180910390f35b34156100e257600080fd5b6100ea610355565b6040518082815260200191505060405180910390f35b341561010b57600080fd5b61015f600480803573ffffffffffffffffffffffffffffffffffffffff1690602001909190803573ffffffffffffffffffffffffffffffffffffffff16906020019091908035906020019091905050610361565b604051808215151515815260200191505060405180910390f35b341561018457600080fd5b6101b0600480803573ffffffffffffffffffffffffffffffffffffffff1690602001909190505061045f565b6040518082815260200191505060405180910390f35b34156101d157600080fd5b610206600480803573ffffffffffffffffffffffffffffffffffffffff1690602001909190803590602001909190505061051f565b604051808215151515815260200191505060405180910390f35b341561022b57600080fd5b610276600480803573ffffffffffffffffffffffffffffffffffffffff1690602001909190803573ffffffffffffffffffffffffffffffffffffffff169060200190919050506105e8565b6040518082815260200191505060405180910390f35b60008073__TokenLib______________________________638ca979ca909185856040518463ffffffff167c0100000000000000000000000000000000000000000000000000000000028152600401808481526020018373ffffffffffffffffffffffffffffffffffffffff1673ffffffffffffffffffffffffffffffffffffffff168152602001828152602001935050505060206040518083038186803b151561033657600080fd5b5af4151561034357600080fd5b50505060405180519050905092915050565b60008060050154905090565b60008073__TokenLib______________________________6321a6a23d90918686866040518563ffffffff167c0100000000000000000000000000000000000000000000000000000000028152600401808581526020018473ffffffffffffffffffffffffffffffffffffffff1673ffffffffffffffffffffffffffffffffffffffff1681526020018373ffffffffffffffffffffffffffffffffffffffff1673ffffffffffffffffffffffffffffffffffffffff16815260200182815260200194505050505060206040518083038186803b151561043f57600080fd5b5af4151561044c57600080fd5b5050506040518051905090509392505050565b60008073__TokenLib______________________________633af00d0f9091846040518363ffffffff167c0100000000000000000000000000000000000000000000000000000000028152600401808381526020018273ffffffffffffffffffffffffffffffffffffffff1673ffffffffffffffffffffffffffffffffffffffff1681526020019250505060206040518083038186803b151561050157600080fd5b5af4151561050e57600080fd5b505050604051805190509050919050565b60008073__TokenLib______________________________63d4b1770a909185856040518463ffffffff167c0100000000000000000000000000000000000000000000000000000000028152600401808481526020018373ffffffffffffffffffffffffffffffffffffffff1673ffffffffffffffffffffffffffffffffffffffff168152602001828152602001935050505060206040518083038186803b15156105c957600080fd5b5af415156105d657600080fd5b50505060405180519050905092915050565b60008073__TokenLib______________________________63ac9b44f7909185856040518463ffffffff167c0100000000000000000000000000000000000000000000000000000000028152600401808481526020018373ffffffffffffffffffffffffffffffffffffffff1673ffffffffffffffffffffffffffffffffffffffff1681526020018273ffffffffffffffffffffffffffffffffffffffff1673ffffffffffffffffffffffffffffffffffffffff168152602001935050505060206040518083038186803b15156106be57600080fd5b5af415156106cb57600080fd5b505050604051805190509050929150505600a165627a7a7230582018592e88b34ef6f9e001c751d764985f55ee79b8db29dabe93bed5486daeb1b80029",
  "source": "pragma solidity ^0.4.21;\n\nimport \"ethereum-libraries-token/contracts/TokenLib.sol\";\n\ncontract TestToken {\n  using TokenLib for TokenLib.TokenStorage;\n\n  event Transfer(address indexed from, address indexed to, uint256 value);\n  event Approval(address indexed owner, address indexed spender, uint256 value);\n  event OwnerChange(address from, address to);\n  event Burn(address indexed burner, uint256 value);\n  event MintingClosed(bool mintingClosed);\n  event ErrorMsg(string msg);\n\n  TokenLib.TokenStorage token;\n\n  function TestToken(\n                address _owner,\n                string _name,\n                string _symbol,\n                uint8 _decimals,\n                uint256 _initial_supply,\n                bool _allowMinting)\n                public\n  {\n    token.init(_owner,_name,_symbol,_decimals,_initial_supply,_allowMinting);\n  }\n\n  function totalSupply() public view returns (uint) {\n    return token.totalSupply;\n  }\n\n  function balanceOf(address who) public view returns (uint) {\n    return token.balanceOf(who);\n  }\n\n  function allowance(address owner, address spender) public view returns (uint) {\n    return token.allowance(owner, spender);\n  }\n\n  function transfer(address to, uint value) public returns (bool ok) {\n    return token.transfer(to, value);\n  }\n\n  function transferFrom(address from, address to, uint value) public returns (bool ok) {\n    return token.transferFrom(from, to, value);\n  }\n\n  function approve(address spender, uint value) public returns (bool ok) {\n    return token.approve(spender, value);\n  }\n\n}\n",
  "sourcePath": "/Users/hackdom/Projects/ethereum-libraries-wallet/contracts/TestToken.sol",
  "compiler": {
    "name": "solc",
    "version": "0.4.21+commit.dfe3193c.Emscripten.clang"
  },
  "schemaVersion": "2.0.0",
  "updatedAt": "2018-04-13T20:49:45.527Z"
}