{
  "contractName": "WalletMainLib",
  "abi": [
    {
      "anonymous": false,
      "inputs": [
        {
          "indexed": false,
          "name": "txid",
          "type": "bytes32"
        },
        {
          "indexed": false,
          "name": "sender",
          "type": "address"
        },
        {
          "indexed": false,
          "name": "confirmsNeeded",
          "type": "uint256"
        }
      ],
      "name": "LogRevokeNotice",
      "type": "event"
    },
    {
      "anonymous": false,
      "inputs": [
        {
          "indexed": false,
          "name": "txid",
          "type": "bytes32"
        },
        {
          "indexed": false,
          "name": "sender",
          "type": "address"
        }
      ],
      "name": "LogTransactionFailed",
      "type": "event"
    },
    {
      "anonymous": false,
      "inputs": [
        {
          "indexed": false,
          "name": "txid",
          "type": "bytes32"
        },
        {
          "indexed": false,
          "name": "sender",
          "type": "address"
        },
        {
          "indexed": false,
          "name": "confirmsNeeded",
          "type": "uint256"
        }
      ],
      "name": "LogTransactionConfirmed",
      "type": "event"
    },
    {
      "anonymous": false,
      "inputs": [
        {
          "indexed": false,
          "name": "txid",
          "type": "bytes32"
        },
        {
          "indexed": false,
          "name": "target",
          "type": "address"
        },
        {
          "indexed": false,
          "name": "value",
          "type": "uint256"
        },
        {
          "indexed": false,
          "name": "data",
          "type": "bytes"
        }
      ],
      "name": "LogTransactionComplete",
      "type": "event"
    },
    {
      "anonymous": false,
      "inputs": [
        {
          "indexed": false,
          "name": "newContract",
          "type": "address"
        },
        {
          "indexed": false,
          "name": "value",
          "type": "uint256"
        }
      ],
      "name": "LogContractCreated",
      "type": "event"
    },
    {
      "anonymous": false,
      "inputs": [
        {
          "indexed": false,
          "name": "amount",
          "type": "uint256"
        },
        {
          "indexed": false,
          "name": "msg",
          "type": "string"
        }
      ],
      "name": "LogErrorMsg",
      "type": "event"
    },
    {
      "constant": false,
      "inputs": [
        {
          "name": "self",
          "type": "WalletMainLib.WalletData storage"
        },
        {
          "name": "_owners",
          "type": "address[]"
        },
        {
          "name": "_requiredAdmin",
          "type": "uint256"
        },
        {
          "name": "_requiredMajor",
          "type": "uint256"
        },
        {
          "name": "_requiredMinor",
          "type": "uint256"
        },
        {
          "name": "_majorThreshold",
          "type": "uint256"
        }
      ],
      "name": "init",
      "outputs": [
        {
          "name": "",
          "type": "bool"
        }
      ],
      "payable": false,
      "stateMutability": "nonpayable",
      "type": "function"
    },
    {
      "constant": false,
      "inputs": [
        {
          "name": "self",
          "type": "WalletMainLib.WalletData storage"
        },
        {
          "name": "_id",
          "type": "bytes32"
        },
        {
          "name": "_txIndex",
          "type": "uint256"
        }
      ],
      "name": "checkNotConfirmed",
      "outputs": [
        {
          "name": "",
          "type": "bool"
        }
      ],
      "payable": false,
      "stateMutability": "nonpayable",
      "type": "function"
    },
    {
      "constant": true,
      "inputs": [
        {
          "name": "_required",
          "type": "uint256"
        },
        {
          "name": "_count",
          "type": "uint256"
        }
      ],
      "name": "calcConfirmsNeeded",
      "outputs": [
        {
          "name": "",
          "type": "uint256"
        }
      ],
      "payable": false,
      "stateMutability": "pure",
      "type": "function"
    },
    {
      "constant": true,
      "inputs": [
        {
          "name": "_txData",
          "type": "bytes"
        }
      ],
      "name": "getAmount",
      "outputs": [
        {
          "name": "",
          "type": "bool"
        },
        {
          "name": "",
          "type": "uint256"
        }
      ],
      "payable": false,
      "stateMutability": "pure",
      "type": "function"
    },
    {
      "constant": false,
      "inputs": [
        {
          "name": "self",
          "type": "WalletMainLib.WalletData storage"
        },
        {
          "name": "_to",
          "type": "address"
        },
        {
          "name": "_value",
          "type": "uint256"
        },
        {
          "name": "_isTransfer",
          "type": "bool"
        },
        {
          "name": "_amount",
          "type": "uint256"
        }
      ],
      "name": "getRequired",
      "outputs": [
        {
          "name": "",
          "type": "uint256"
        }
      ],
      "payable": false,
      "stateMutability": "nonpayable",
      "type": "function"
    },
    {
      "constant": false,
      "inputs": [
        {
          "name": "_txData",
          "type": "bytes"
        },
        {
          "name": "_value",
          "type": "uint256"
        }
      ],
      "name": "createContract",
      "outputs": [],
      "payable": false,
      "stateMutability": "nonpayable",
      "type": "function"
    },
    {
      "constant": false,
      "inputs": [
        {
          "name": "self",
          "type": "WalletMainLib.WalletData storage"
        },
        {
          "name": "_to",
          "type": "address"
        },
        {
          "name": "_value",
          "type": "uint256"
        },
        {
          "name": "_txData",
          "type": "bytes"
        },
        {
          "name": "_confirm",
          "type": "bool"
        },
        {
          "name": "_data",
          "type": "bytes"
        }
      ],
      "name": "serveTx",
      "outputs": [
        {
          "name": "",
          "type": "bool"
        },
        {
          "name": "",
          "type": "bytes32"
        }
      ],
      "payable": false,
      "stateMutability": "nonpayable",
      "type": "function"
    },
    {
      "constant": false,
      "inputs": [
        {
          "name": "self",
          "type": "WalletMainLib.WalletData storage"
        },
        {
          "name": "_id",
          "type": "bytes32"
        }
      ],
      "name": "confirmTx",
      "outputs": [
        {
          "name": "",
          "type": "bool"
        }
      ],
      "payable": false,
      "stateMutability": "nonpayable",
      "type": "function"
    },
    {
      "constant": false,
      "inputs": [
        {
          "name": "self",
          "type": "WalletMainLib.WalletData storage"
        },
        {
          "name": "_id",
          "type": "bytes32"
        }
      ],
      "name": "revokeConfirm",
      "outputs": [
        {
          "name": "",
          "type": "bool"
        }
      ],
      "payable": false,
      "stateMutability": "nonpayable",
      "type": "function"
    }
  ],
  "bytecode": "0x612a81610030600b82828239805160001a6073146000811461002057610022565bfe5b5030600052607381538281f30073000000000000000000000000000000000000000030146060604052600436106100b0576000357c0100000000000000000000000000000000000000000000000000000000900463ffffffff1680630cbc79ae146100b55780631f934299146100fd5780633f244a4b146101325780633fe9bf0e146101a55780634ce18d6b1461020b5780635f0d42621461027c5780639ae196ff1461037f578063cbf279f7146103d0578063fb18a41a14610418575b600080fd5b81156100c057600080fd5b6100e36004808035906020019091908035600019169060200190919050506104b7565b604051808215151515815260200191505060405180910390f35b61011c6004808035906020019091908035906020019091905050610980565b6040518082815260200191505060405180910390f35b811561013d57600080fd5b61018f600480803590602001909190803573ffffffffffffffffffffffffffffffffffffffff16906020019091908035906020019091908035151590602001909190803590602001909190505061098d565b6040518082815260200191505060405180910390f35b81156101b057600080fd5b610209600480803590602001908201803590602001908080601f01602080910402602001604051908101604052809392919081815260200183838082843782019150505050505091908035906020019091905050610e3d565b005b61025b600480803590602001908201803590602001908080601f01602080910402602001604051908101604052809392919081815260200183838082843782019150505050505091905050610ece565b60405180831515151581526020018281526020019250505060405180910390f35b811561028757600080fd5b610356600480803590602001909190803573ffffffffffffffffffffffffffffffffffffffff1690602001909190803590602001909190803590602001908201803590602001908080601f01602080910402602001604051908101604052809392919081815260200183838082843782019150505050505091908035151590602001909190803590602001908201803590602001908080601f0160208091040260200160405190810160405280939291908181526020018383808284378201915050505050509190505061106b565b604051808315151515815260200182600019166000191681526020019250505060405180910390f35b811561038a57600080fd5b6103b66004808035906020019091908035600019169060200190919080359060200190919050506119f6565b604051808215151515815260200191505060405180910390f35b81156103db57600080fd5b6103fe600480803590602001909190803560001916906020019091905050611e9f565b604051808215151515815260200191505060405180910390f35b811561042357600080fd5b61049d600480803590602001909190803590602001908201803590602001908080602002602001604051908101604052809392919081815260200183836020028082843782019150505050505091908035906020019091908035906020019091908035906020019091908035906020019091905050612560565b604051808215151515815260200191505060405180910390f35b60008060008060008060008860080160003373ffffffffffffffffffffffffffffffffffffffff1673ffffffffffffffffffffffffffffffffffffffff1681526020019081526020016000205411151561051057600080fd5b87600901600088600019166000191681526020019081526020016000208054905094506000851415610628577f8756f3e78da606244d7d8c9563ce2678f294db7c57afce515849e03d5eec6c3a856040518082815260200180602001828103825260108152602001807f5478206e6f7420696e69746961746564000000000000000000000000000000008152506020019250505060405180910390a17f7eaa0c297dc19ad870ff21eac4263ebf4c3c98f752ae80f191b4247e61f9954a87336040518083600019166000191681526020018273ffffffffffffffffffffffffffffffffffffffff1673ffffffffffffffffffffffffffffffffffffffff1681526020019250505060405180910390a160009550610975565b84806001900395505061063c8888876119f6565b925082151561064e5760009550610975565b87600901600088600019166000191681526020019081526020016000208581548110151561067857fe5b9060005260206000209060090201600501805480600101828161069b91906127ca565b916000526020600020900160003373ffffffffffffffffffffffffffffffffffffffff16909190915055508760090160008860001916600019168152602001908152602001600020858154811015156106f057fe5b90600052602060002090600902016006016000815480929190600101919050555087600901600088600019166000191681526020019081526020016000208581548110151561073b57fe5b90600052602060002090600902016007015488600901600089600019166000191681526020019081526020016000208681548110151561077757fe5b906000526020600020906009020160060154141561086f573091508173ffffffffffffffffffffffffffffffffffffffff168860090160008960001916600019168152602001908152602001600020868154811015156107d357fe5b906000526020600020906009020160040160405180828054600181600116156101000203166002900480156108495780601f1061081e57610100808354040283529160200191610849565b820191906000526020600020905b81548152906001019060200180831161082c57829003601f168201915b50509150506000604051808303816000865af1915050151561086a57600080fd5b610971565b6108ef88600901600089600019166000191681526020019081526020016000208681548110151561089c57fe5b9060005260206000209060090201600701548960090160008a60001916600019168152602001908152602001600020878154811015156108d857fe5b906000526020600020906009020160060154610980565b90507fef8dcc2e6089d6cdaf4b9e4488d780383081d593a692f3f2a0a75b1b27be61918733836040518084600019166000191681526020018373ffffffffffffffffffffffffffffffffffffffff1673ffffffffffffffffffffffffffffffffffffffff168152602001828152602001935050505060405180910390a1600193505b8395505b505050505092915050565b6000818303905092915050565b600080600080600190508860050160008073ffffffffffffffffffffffffffffffffffffffff16815260200190815260200160002060006002811015156109d057fe5b015462015180428115156109e057fe5b041115610a755762015180428115156109f557fe5b048960050160008073ffffffffffffffffffffffffffffffffffffffff1681526020019081526020016000206000600281101515610a2f57fe5b018190555060008960050160008073ffffffffffffffffffffffffffffffffffffffff1681526020019081526020016000206001600281101515610a6f57fe5b01819055505b8860050160008073ffffffffffffffffffffffffffffffffffffffff1681526020019081526020016000206001600281101515610aae57fe5b015473__BasicMathLib__________________________6366098d4f9091896040518363ffffffff167c01000000000000000000000000000000000000000000000000000000000281526004018083815260200182815260200192505050604080518083038186803b1515610b2257600080fd5b5af41515610b2f57600080fd5b50505060405180519060200180519050809350819450505082151515610b5457600080fd5b8860060160008073ffffffffffffffffffffffffffffffffffffffff16815260200190815260200160002054821015610b8c57600090505b60008873ffffffffffffffffffffffffffffffffffffffff1614158015610bb05750855b15610e1a578860050160008973ffffffffffffffffffffffffffffffffffffffff1673ffffffffffffffffffffffffffffffffffffffff1681526020019081526020016000206000600281101515610c0457fe5b01546201518042811515610c1457fe5b041115610cd5576201518042811515610c2957fe5b048960050160008a73ffffffffffffffffffffffffffffffffffffffff1673ffffffffffffffffffffffffffffffffffffffff1681526020019081526020016000206000600281101515610c7957fe5b018190555060008960050160008a73ffffffffffffffffffffffffffffffffffffffff1673ffffffffffffffffffffffffffffffffffffffff1681526020019081526020016000206001600281101515610ccf57fe5b01819055505b8860050160008973ffffffffffffffffffffffffffffffffffffffff1673ffffffffffffffffffffffffffffffffffffffff1681526020019081526020016000206001600281101515610d2457fe5b015473__BasicMathLib__________________________6366098d4f9091876040518363ffffffff167c01000000000000000000000000000000000000000000000000000000000281526004018083815260200182815260200192505050604080518083038186803b1515610d9857600080fd5b5af41515610da557600080fd5b50505060405180519060200180519050809350819450505082151515610dca57600080fd5b8860060160008973ffffffffffffffffffffffffffffffffffffffff1673ffffffffffffffffffffffffffffffffffffffff1681526020019081526020016000205482101515610e1957600190505b5b80610e29578860040154610e2f565b88600301545b935050505095945050505050565b60008083516020850184f091506000823b119050801515610e5d57600080fd5b7fe2e513482c0a3685f58d03709bd31102a8cc464077d2550c554d23291224d8c88284604051808373ffffffffffffffffffffffffffffffffffffffff1673ffffffffffffffffffffffffffffffffffffffff1681526020018281526020019250505060405180910390a150505050565b60008060008060008060008060008063a9059cbb7c010000000000000000000000000000000000000000000000000000000002955063095ea7b37c01000000000000000000000000000000000000000000000000000000000294506323b872dd7c010000000000000000000000000000000000000000000000000000000002935060208b01519750879650857bffffffffffffffffffffffffffffffffffffffffffffffffffffffff1916877bffffffffffffffffffffffffffffffffffffffffffffffffffffffff19161480610fe25750847bffffffffffffffffffffffffffffffffffffffffffffffffffffffff1916877bffffffffffffffffffffffffffffffffffffffffffffffffffffffff1916145b15610ffe576001925060448b0151915081600190049050611058565b837bffffffffffffffffffffffffffffffffffffffffffffffffffffffff1916877bffffffffffffffffffffffffffffffffffffffffffffffffffffffff19161415611057576001925060648b01519150816001900490505b5b8281995099505050505050505050915091565b6000806000806000806000808c8c8c60405180807f73657276655478000000000000000000000000000000000000000000000000008152506007018473ffffffffffffffffffffffffffffffffffffffff1673ffffffffffffffffffffffffffffffffffffffff166c0100000000000000000000000002815260140183815260200182805190602001908083835b60208310151561111e57805182526020820191506020810190506020830392506110f9565b6001836020036101000a0380198251168184511680821785525050505050509050019350505050604051809103902095508d600901600087600019166000191681526020019081526020016000208054905094508d6003015493503073ffffffffffffffffffffffffffffffffffffffff163373ffffffffffffffffffffffffffffffffffffffff161415156114be578915156111cc576111bf8e87611e9f565b92508286975097506119e5565b60008d73ffffffffffffffffffffffffffffffffffffffff161415156111fe576111f58b610ece565b80935081945050505b600085148061125557508d600901600087600019166000191681526020019081526020016000206001860381548110151561123557fe5b906000526020600020906009020160080160009054906101000a900460ff165b156113cc5760008e60080160003373ffffffffffffffffffffffffffffffffffffffff1673ffffffffffffffffffffffffffffffffffffffff168152602001908152602001600020541115156112aa57600080fd5b6112b78e8e8e868661098d565b93508d6009016000876000191660001916815260200190815260200160002080548091906001016112e891906127f6565b50838e600901600088600019166000191681526020019081526020016000208681548110151561131457fe5b906000526020600020906009020160070181905550620151804281151561133757fe5b048e600901600088600019166000191681526020019081526020016000208681548110151561136257fe5b9060005260206000209060090201600001819055508d6007016000620151804281151561138b57fe5b04815260200190815260200160002080548060010182816113ac9190612828565b9160005260206000209001600088909190915090600019169055506113f6565b8480600190039550506113e08e87876119f6565b92508215156113f557600086975097506119e5565b5b8d600901600087600019166000191681526020019081526020016000208581548110151561142057fe5b9060005260206000209060090201600501805480600101828161144391906127ca565b916000526020600020900160003373ffffffffffffffffffffffffffffffffffffffff16909190915055508d600901600087600019166000191681526020019081526020016000208581548110151561149857fe5b9060005260206000209060090201600601600081548092919060010191905055506114c8565b8480600190039550505b8d60090160008760001916600019168152602001908152602001600020858154811015156114f257fe5b9060005260206000209060090201600701548e600901600088600019166000191681526020019081526020016000208681548110151561152e57fe5b9060005260206000209060090201600601541415611836578b8e60050160008073ffffffffffffffffffffffffffffffffffffffff168152602001908152602001600020600160028110151561158057fe5b0160008282540192505081905550818e60050160008f73ffffffffffffffffffffffffffffffffffffffff1673ffffffffffffffffffffffffffffffffffffffff16815260200190815260200160002060016002811015156115de57fe5b016000828254019250508190555060018e600901600088600019166000191681526020019081526020016000208681548110151561161857fe5b906000526020600020906009020160080160006101000a81548160ff02191690831515021790555060008d73ffffffffffffffffffffffffffffffffffffffff16141561166e576116698b8d610e3d565b611702565b8c73ffffffffffffffffffffffffffffffffffffffff168c8c60405180828051906020019080838360005b838110156116b4578082015181840152602081019050611699565b50505050905090810190601f1680156116e15780820380516001836020036101000a031916815260200191505b5091505060006040518083038185875af192505050151561170157600080fd5b5b8d600901600087600019166000191681526020019081526020016000208581548110151561172c57fe5b906000526020600020906009020160040160006117499190612854565b7fec7f2ae735b970eb41ebb7346e62f63325f2bd5c97e001cb8028c88b79dc388c868e8e8c6040518085600019166000191681526020018473ffffffffffffffffffffffffffffffffffffffff1673ffffffffffffffffffffffffffffffffffffffff16815260200183815260200180602001828103825283818151815260200191508051906020019080838360005b838110156117f45780820151818401526020810190506117d9565b50505050905090810190601f1680156118215780820380516001836020036101000a031916815260200191505b509550505050505060405180910390a16119dd565b60008e600901600088600019166000191681526020019081526020016000208681548110151561186257fe5b906000526020600020906009020160040180546001816001161561010002031660029004905014156118df57888e60090160008860001916600019168152602001908152602001600020868154811015156118b957fe5b906000526020600020906009020160040190805190602001906118dd92919061289c565b505b61195f8e600901600088600019166000191681526020019081526020016000208681548110151561190c57fe5b9060005260206000209060090201600701548f600901600089600019166000191681526020019081526020016000208781548110151561194857fe5b906000526020600020906009020160060154610980565b90507fef8dcc2e6089d6cdaf4b9e4488d780383081d593a692f3f2a0a75b1b27be61918633836040518084600019166000191681526020018373ffffffffffffffffffffffffffffffffffffffff1673ffffffffffffffffffffffffffffffffffffffff168152602001828152602001935050505060405180910390a15b600186975097505b505050505050965096945050505050565b60008060008060008760080160003373ffffffffffffffffffffffffffffffffffffffff1673ffffffffffffffffffffffffffffffffffffffff16815260200190815260200160002054111515611a4c57600080fd5b86600901600087600019166000191681526020019081526020016000208054905092506000831480611a7e5750828510155b15611b6f577f8756f3e78da606244d7d8c9563ce2678f294db7c57afce515849e03d5eec6c3a836040518082815260200180602001828103825260108152602001807f5478206e6f7420696e69746961746564000000000000000000000000000000008152506020019250505060405180910390a17f7eaa0c297dc19ad870ff21eac4263ebf4c3c98f752ae80f191b4247e61f9954a86336040518083600019166000191681526020018273ffffffffffffffffffffffffffffffffffffffff1673ffffffffffffffffffffffffffffffffffffffff1681526020019250505060405180910390a160009350611e95565b866009016000876000191660001916815260200190815260200160002085815481101515611b9957fe5b906000526020600020906009020160080160009054906101000a900460ff1615611ca9577f8756f3e78da606244d7d8c9563ce2678f294db7c57afce515849e03d5eec6c3a8560405180828152602001806020018281038252601c8152602001807f5472616e73616374696f6e20616c726561647920636f6d706c657465000000008152506020019250505060405180910390a17f7eaa0c297dc19ad870ff21eac4263ebf4c3c98f752ae80f191b4247e61f9954a86336040518083600019166000191681526020018273ffffffffffffffffffffffffffffffffffffffff1673ffffffffffffffffffffffffffffffffffffffff1681526020019250505060405180910390a160009350611e95565b866009016000876000191660001916815260200190815260200160002085815481101515611cd357fe5b906000526020600020906009020160050173__Array256Lib___________________________6366c19bcd90913373ffffffffffffffffffffffffffffffffffffffff1660006040518463ffffffff167c010000000000000000000000000000000000000000000000000000000002815260040180848152602001838152602001821515151581526020019350505050604080518083038186803b1515611d7957600080fd5b5af41515611d8657600080fd5b5050506040518051906020018051905080925081935050508115611e90577f8756f3e78da606244d7d8c9563ce2678f294db7c57afce515849e03d5eec6c3a816040518082815260200180602001828103825260178152602001807f4f776e657220616c726561647920636f6e6669726d65640000000000000000008152506020019250505060405180910390a17f7eaa0c297dc19ad870ff21eac4263ebf4c3c98f752ae80f191b4247e61f9954a86336040518083600019166000191681526020018273ffffffffffffffffffffffffffffffffffffffff1673ffffffffffffffffffffffffffffffffffffffff1681526020019250505060405180910390a160009350611e95565b600193505b5050509392505050565b6000806000806000808760080160003373ffffffffffffffffffffffffffffffffffffffff1673ffffffffffffffffffffffffffffffffffffffff16815260200190815260200160002054111515611ef657600080fd5b8660090160008760001916600019168152602001908152602001600020805490509350600084141561200e577f8756f3e78da606244d7d8c9563ce2678f294db7c57afce515849e03d5eec6c3a846040518082815260200180602001828103825260108152602001807f5478206e6f7420696e69746961746564000000000000000000000000000000008152506020019250505060405180910390a17f7eaa0c297dc19ad870ff21eac4263ebf4c3c98f752ae80f191b4247e61f9954a86336040518083600019166000191681526020018273ffffffffffffffffffffffffffffffffffffffff1673ffffffffffffffffffffffffffffffffffffffff1681526020019250505060405180910390a160009450612556565b83806001900394505086600901600087600019166000191681526020019081526020016000208481548110151561204157fe5b906000526020600020906009020160080160009054906101000a900460ff1615612151577f8756f3e78da606244d7d8c9563ce2678f294db7c57afce515849e03d5eec6c3a8460405180828152602001806020018281038252601c8152602001807f5472616e73616374696f6e20616c726561647920636f6d706c657465000000008152506020019250505060405180910390a17f7eaa0c297dc19ad870ff21eac4263ebf4c3c98f752ae80f191b4247e61f9954a86336040518083600019166000191681526020018273ffffffffffffffffffffffffffffffffffffffff1673ffffffffffffffffffffffffffffffffffffffff1681526020019250505060405180910390a160009450612556565b86600901600087600019166000191681526020019081526020016000208481548110151561217b57fe5b906000526020600020906009020160050173__Array256Lib___________________________6366c19bcd90913373ffffffffffffffffffffffffffffffffffffffff1660006040518463ffffffff167c010000000000000000000000000000000000000000000000000000000002815260040180848152602001838152602001821515151581526020019350505050604080518083038186803b151561222157600080fd5b5af4151561222e57600080fd5b505050604051805190602001805190508093508194505050821515612339577f8756f3e78da606244d7d8c9563ce2678f294db7c57afce515849e03d5eec6c3a8260405180828152602001806020018281038252601a8152602001807f4f776e657220686173206e6f7420636f6e6669726d65642074780000000000008152506020019250505060405180910390a17f7eaa0c297dc19ad870ff21eac4263ebf4c3c98f752ae80f191b4247e61f9954a86336040518083600019166000191681526020018273ffffffffffffffffffffffffffffffffffffffff1673ffffffffffffffffffffffffffffffffffffffff1681526020019250505060405180910390a160009450612556565b600087600901600088600019166000191681526020019081526020016000208581548110151561236557fe5b90600052602060002090600902016005018381548110151561238357fe5b9060005260206000209001819055508660090160008760001916600019168152602001908152602001600020848154811015156123bc57fe5b9060005260206000209060090201600601600081548092919060019003919050555061245e87600901600088600019166000191681526020019081526020016000208581548110151561240b57fe5b90600052602060002090600902016007015488600901600089600019166000191681526020019081526020016000208681548110151561244757fe5b906000526020600020906009020160060154610980565b9050600087600901600088600019166000191681526020019081526020016000208581548110151561248c57fe5b90600052602060002090600902016006015414156124d65786600901600087600019166000191681526020019081526020016000208054809190600190036124d491906127f6565b505b7f94923fd75da430df607597cb52cdd78ed1ec9425b0428035662f4bdb982a69ee8633836040518084600019166000191681526020018373ffffffffffffffffffffffffffffffffffffffff1673ffffffffffffffffffffffffffffffffffffffff168152602001828152602001935050505060405180910390a1600194505b5050505092915050565b6000806000886001018054905014151561257957600080fd5b8587511015801561258a5750600086115b151561259557600080fd5b848751101580156125a65750600085115b15156125b157600080fd5b838751101580156125c25750600084115b15156125cd57600080fd5b8760010180548060010182816125e3919061291c565b9160005260206000209001600080909190916101000a81548173ffffffffffffffffffffffffffffffffffffffff021916908373ffffffffffffffffffffffffffffffffffffffff16021790555050600090505b8651811015612766576000878281518110151561265057fe5b9060200190602002015173ffffffffffffffffffffffffffffffffffffffff161415151561267d57600080fd5b876001018054806001018281612693919061291c565b9160005260206000209001600089848151811015156126ae57fe5b90602001906020020151909190916101000a81548173ffffffffffffffffffffffffffffffffffffffff021916908373ffffffffffffffffffffffffffffffffffffffff1602179055505060018101886008016000898481518110151561271157fe5b9060200190602002015173ffffffffffffffffffffffffffffffffffffffff1673ffffffffffffffffffffffffffffffffffffffff168152602001908152602001600020819055508080600101915050612637565b85886002018190555084886003018190555083886004018190555060328860000181905550828860060160008073ffffffffffffffffffffffffffffffffffffffff1681526020019081526020016000208190555060019150509695505050505050565b8154818355818115116127f1578183600052602060002091820191016127f09190612948565b5b505050565b81548183558181151161282357600902816009028360005260206000209182019101612822919061296d565b5b505050565b81548183558181151161284f5781836000526020600020918201910161284e9190612a0f565b5b505050565b50805460018160011615610100020316600290046000825580601f1061287a5750612899565b601f0160209004906000526020600020908101906128989190612948565b5b50565b828054600181600116156101000203166002900490600052602060002090601f016020900481019282601f106128dd57805160ff191683800117855561290b565b8280016001018555821561290b579182015b8281111561290a5782518255916020019190600101906128ef565b5b5090506129189190612948565b5090565b815481835581811511612943578183600052602060002091820191016129429190612948565b5b505050565b61296a91905b8082111561296657600081600090555060010161294e565b5090565b90565b612a0c91905b80821115612a085760008082016000905560018201600090556002820160006101000a81549073ffffffffffffffffffffffffffffffffffffffff021916905560038201600090556004820160006129cb9190612854565b6005820160006129db9190612a34565b600682016000905560078201600090556008820160006101000a81549060ff021916905550600901612973565b5090565b90565b612a3191905b80821115612a2d576000816000905550600101612a15565b5090565b90565b5080546000825590600052602060002090810190612a529190612948565b505600a165627a7a723058201e51467f55f6f57c56f5b21749828ab37ee00b63e77b7417639e7eb5c18dc7a30029",
  "source": "pragma solidity ^0.4.21;\n\n/**\n * @title Wallet Main Library\n * @author Modular.network\n *\n * version 1.2.0\n * Copyright (c) 2017 Modular, LLC\n * The MIT License (MIT)\n * https://github.com/Modular-network/ethereum-libraries/blob/master/LICENSE\n *\n * The Wallet Library family is inspired by the multisig wallets built by Consensys\n * at https://github.com/ConsenSys/MultiSigWallet and Parity at\n * https://github.com/paritytech/contracts/blob/master/Wallet.sol with added\n * functionality. Modular works on open source projects in the Ethereum\n * community with the purpose of testing, documenting, and deploying reusable\n * code onto the blockchain to improve security and usability of smart contracts.\n * Modular also strives to educate non-profits, schools, and other community\n * members about the application of blockchain technology. For further\n * information: Modular.network, consensys.net, paritytech.io\n *\n * THE SOFTWARE IS PROVIDED \"AS IS\", WITHOUT WARRANTY OF ANY KIND, EXPRESS\n * OR IMPLIED, INCLUDING BUT NOT LIMITED TO THE WARRANTIES OF\n * MERCHANTABILITY, FITNESS FOR A PARTICULAR PURPOSE AND NONINFRINGEMENT.\n * IN NO EVENT SHALL THE AUTHORS OR COPYRIGHT HOLDERS BE LIABLE FOR ANY\n * CLAIM, DAMAGES OR OTHER LIABILITY, WHETHER IN AN ACTION OF CONTRACT,\n * TORT OR OTHERWISE, ARISING FROM, OUT OF OR IN CONNECTION WITH THE\n * SOFTWARE OR THE USE OR OTHER DEALINGS IN THE SOFTWARE.\n */\n\nimport \"ethereum-libraries-array-utils/contracts/Array256Lib.sol\";\nimport \"ethereum-libraries-basic-math/contracts/BasicMathLib.sol\";\n\nlibrary WalletMainLib {\n  using Array256Lib for uint256[];\n  using BasicMathLib for uint256;\n\n  struct WalletData {\n    uint256 maxOwners; //Maximum wallet owners, should be 50\n    address[] owners; //Array of all owners\n    uint256 requiredAdmin; //Number of sigs required for administrative changes\n    uint256 requiredMajor; //Number of sigs required for major transactions\n    uint256 requiredMinor; //Number of sigs required for minor transactions\n\n    // The amount of a token spent per day, ether is at address mapping 0,\n    // all other tokens defined by address. uint256[0] corresponds to the current\n    // day,  uint256[1] is the spend amount\n    mapping (address => uint256[2]) currentSpend;\n    //The day spend threshold for transactions to be major, ether at 0, all others by address\n    mapping (address => uint256) majorThreshold;\n    //Array of transactions per day, uint256 is the day timestamp, bytes32 is the transaction id\n    mapping (uint256 => bytes32[]) transactions;\n    //Tracks the index of each owner in the owners Array\n    mapping (address => uint256) ownerIndex;\n    //Array of Transaction's by id, new tx's with exact inputs as previous tx will add to array\n    mapping (bytes32 => Transaction[]) transactionInfo;\n\n  }\n\n  struct Transaction {\n    uint256 day; //Timestamp of the day initialized\n    uint256 value; //Amount of ether being sent\n    address tokenAdress; //Address of token transferred\n    uint256 amount; //Amount of tokens transferred\n    bytes data; //Temp location for pending transactions, erased after final confirmation\n    uint256[] confirmedOwners; //Array of owners confirming transaction\n    uint256 confirmCount; //Tracks the number of confirms\n    uint256 confirmRequired; //Number of sigs required for this transaction\n    bool success; //True after final confirmation\n  }\n\n  /*Events*/\n  event LogRevokeNotice(bytes32 txid, address sender, uint256 confirmsNeeded);\n  event LogTransactionFailed(bytes32 txid, address sender);\n  event LogTransactionConfirmed(bytes32 txid, address sender, uint256 confirmsNeeded);\n  event LogTransactionComplete(bytes32 txid, address target, uint256 value, bytes data);\n  event LogContractCreated(address newContract, uint256 value);\n  event LogErrorMsg(uint256 amount, string msg);\n\n  /// @dev Constructor\n  /// @param self The wallet in contract storage\n  /// @param _owners Array of initial owners\n  /// @param _requiredAdmin Set number of sigs for administrative tasks\n  /// @param _requiredMajor Set number of sigs for major tx\n  /// @param _requiredMinor Set number of sigs for minor tx\n  /// @param _majorThreshold Set major tx threshold amount for ether\n  /// @return Will return true when complete\n  function init(WalletData storage self,\n                address[] _owners,\n                uint256 _requiredAdmin,\n                uint256 _requiredMajor,\n                uint256 _requiredMinor,\n                uint256 _majorThreshold) public returns (bool)\n  {\n    require(self.owners.length == 0);\n    require(_owners.length >= _requiredAdmin && _requiredAdmin > 0);\n    require(_owners.length >= _requiredMajor && _requiredMajor > 0);\n    require(_owners.length >= _requiredMinor && _requiredMinor > 0);\n    self.owners.push(0); //Leave index-0 empty for easier owner checks\n\n    for (uint256 i=0; i<_owners.length; i++) {\n      require(_owners[i] != 0);\n      self.owners.push(_owners[i]);\n      self.ownerIndex[_owners[i]] = i+1;\n    }\n    self.requiredAdmin = _requiredAdmin;\n    self.requiredMajor = _requiredMajor;\n    self.requiredMinor = _requiredMinor;\n    self.maxOwners = 50; //Limits to 50 owners, should create wallet pools for more owners\n    self.majorThreshold[0] = _majorThreshold; //Sets ether threshold at address 0\n\n    return true;\n  }\n\n  /*Checks*/\n\n  /// @dev Verifies a confirming owner has not confirmed already\n  /// @param self Contract wallet in storage\n  /// @param _id ID of the tx being checked\n  /// @param _txIndex Index number of this tx\n  /// @return Returns true if check passes, false otherwise\n  function checkNotConfirmed(WalletData storage self, bytes32 _id, uint256 _txIndex)\n           public returns (bool)\n  {\n    require(self.ownerIndex[msg.sender] > 0);\n    uint256 _txLen = self.transactionInfo[_id].length;\n\n    if(_txLen == 0 || _txIndex >= _txLen){\n      emit LogErrorMsg(_txLen, \"Tx not initiated\");\n      emit LogTransactionFailed(_id, msg.sender);\n      return false;\n    }\n\n    if(self.transactionInfo[_id][_txIndex].success){\n      emit LogErrorMsg(_txIndex, \"Transaction already complete\");\n      emit LogTransactionFailed(_id, msg.sender);\n      return false;\n    }\n\n    //Function from Modular.io array utility library\n    bool found;\n    uint256 index;\n    (found, index) = self.transactionInfo[_id][_txIndex].confirmedOwners.indexOf(uint256(msg.sender), false);\n    if(found){\n      emit LogErrorMsg(index, \"Owner already confirmed\");\n      emit LogTransactionFailed(_id, msg.sender);\n      return false;\n    }\n\n    return true;\n  }\n\n  /*Utility Functions*/\n\n  /// @dev Used later to calculate the number of confirmations needed for tx\n  /// @param _required Number of sigs required\n  /// @param _count Current number of sigs\n  function calcConfirmsNeeded(uint256 _required, uint256 _count) public pure returns (uint256){\n    return _required - _count;\n  }\n\n  /// @dev Used to check if tx is moving tokens and parses amount\n  /// @param _txData Data for proposed tx\n  /// @return bool True if transaction is moving tokens\n  /// @return uint256 Amount of tokens involved, 0 if not spending tx\n  function getAmount(bytes _txData) public pure returns (bool,uint256) {\n    bytes32 getSig;\n    bytes4 sig;\n    bytes4 tSig = 0xa9059cbb; //transfer func signature\n    bytes4 aSig = 0x095ea7b3; //approve func signature\n    bytes4 tfSig = 0x23b872dd; //transferFrom func signature\n    bool transfer;\n    bytes32 _amountData;\n    uint256 _amount;\n\n    assembly { getSig := mload(add(_txData,0x20)) }\n    sig = bytes4(getSig);\n    if(sig ==  tSig || sig == aSig){\n      transfer = true;\n      assembly { _amountData := mload(add(_txData,0x44)) }\n      _amount = uint256(_amountData);\n    } else if(sig == tfSig){\n      transfer = true;\n      assembly { _amountData := mload(add(_txData,0x64)) }\n      _amount = uint256(_amountData);\n    }\n    return (transfer,_amount);\n  }\n\n  /// @dev Retrieves sig requirement for spending tx\n  /// @param self Contract wallet in storage\n  /// @param _to Target address of transaction\n  /// @param _value Amount of ether spend\n  /// @param _isTransfer True if transferring other tokens, false otherwise\n  /// @param _amount Amount of tokens being transferred, 0 if not a transfer tx\n  /// @return uint256 The required sigs for tx\n  function getRequired(WalletData storage self,\n                       address _to,\n                       uint256 _value,\n                       bool _isTransfer,\n                       uint256 _amount)\n                       public returns (uint256)\n  {\n    bool err;\n    uint256 res;\n    bool major = true;\n    //Reset spend if this is first check of the day\n    if((now / 1 days) > self.currentSpend[0][0]){\n      self.currentSpend[0][0] = now / 1 days;\n      self.currentSpend[0][1] = 0;\n    }\n\n    (err, res) = self.currentSpend[0][1].plus(_value);\n    require(!err);\n\n    if(res < self.majorThreshold[0])\n      major = false;\n\n    if(_to != 0 && _isTransfer){\n      if((now / 1 days) > self.currentSpend[_to][0]){\n        self.currentSpend[_to][0] = now / 1 days;\n        self.currentSpend[_to][1] = 0;\n      }\n\n      (err, res) = self.currentSpend[_to][1].plus(_amount);\n      require(!err);\n\n      if(res >= self.majorThreshold[_to])\n        major = true;\n    }\n\n    return major ? self.requiredMajor : self.requiredMinor;\n  }\n\n  /// @dev Function to create new contract\n  /// @param _txData Transaction data\n  /// @param _value Amount of eth sending to new contract\n  function createContract(bytes _txData, uint256 _value) public {\n    address _newContract;\n    bool allGood;\n\n    assembly {\n      _newContract := create(_value, add(_txData, 0x20), mload(_txData))\n      allGood := gt(extcodesize(_newContract),0)\n    }\n    require(allGood);\n    emit LogContractCreated(_newContract, _value);\n  }\n\n  /*Primary Function*/\n\n  /// @dev Create and execute transaction from wallet\n  /// @param self Wallet in contract storage\n  /// @param _to Address of target\n  /// @param _value Amount of ether sending\n  /// @param _txData Data for executing transaction\n  /// @param _confirm True if confirming, false if revoking confirmation\n  /// @param _data Message data passed from wallet contract\n  /// @return bool Returns true if successful, false otherwise\n  /// @return bytes32 Returns the tx ID, can be used for confirm/revoke functions\n  function serveTx(WalletData storage self,\n                   address _to,\n                   uint256 _value,\n                   bytes _txData,\n                   bool _confirm,\n                   bytes _data)\n                   public returns (bool,bytes32)\n  {\n    bytes32 _id = keccak256(\"serveTx\",_to,_value,_txData);\n    uint256 _txIndex = self.transactionInfo[_id].length;\n    uint256 _required = self.requiredMajor;\n\n    //Run checks if not called from generic confirm/revoke function\n    if(msg.sender != address(this)){\n      bool allGood;\n      uint256 _amount;\n      // if the owner is revoking his/her confirmation but doesn't know the\n      // specific transaction id hash\n      if(!_confirm) {\n        allGood = revokeConfirm(self, _id);\n        return (allGood,_id);\n      } else { // else confirming the transaction\n        //Reuse allGood due to stack limit\n        if(_to != 0)\n          (allGood,_amount) = getAmount(_txData);\n\n        //if this is a new transaction id or if a previous identical transaction had already succeeded\n        if(_txIndex == 0 || self.transactionInfo[_id][_txIndex - 1].success){\n          require(self.ownerIndex[msg.sender] > 0);\n\n          _required = getRequired(self, _to, _value, allGood,_amount);\n\n          // add this transaction to the wallets record and initialize the settings\n          self.transactionInfo[_id].length++;\n          self.transactionInfo[_id][_txIndex].confirmRequired = _required;\n          self.transactionInfo[_id][_txIndex].day = now / 1 days;\n          self.transactions[now / 1 days].push(_id);\n        } else { // else the transaction is already pending\n          _txIndex--; // set the index to the index of the existing transaction\n          //make sure the sender isn't already confirmed\n          allGood = checkNotConfirmed(self, _id, _txIndex);\n          if(!allGood)\n            return (false,_id);\n        }\n      }\n\n      // add the senders confirmation to the transaction\n      self.transactionInfo[_id][_txIndex].confirmedOwners.push(uint256(msg.sender));\n      self.transactionInfo[_id][_txIndex].confirmCount++;\n    } else {\n      // else were calling from generic confirm/revoke function, set the\n      // _txIndex index to the index of the existing transaction\n      _txIndex--;\n    }\n\n    // if there are enough confirmations\n    if(self.transactionInfo[_id][_txIndex].confirmCount ==\n       self.transactionInfo[_id][_txIndex].confirmRequired)\n    {\n      // execute the transaction\n      self.currentSpend[0][1] += _value;\n      self.currentSpend[_to][1] += _amount;\n      self.transactionInfo[_id][_txIndex].success = true;\n\n      if(_to == 0){\n        //Failure is self contained in method\n        createContract(_txData, _value);\n      } else {\n        require(_to.call.value(_value)(_txData));\n      }\n      delete self.transactionInfo[_id][_txIndex].data;\n      emit LogTransactionComplete(_id, _to, _value, _data);\n    } else {\n      if(self.transactionInfo[_id][_txIndex].data.length == 0)\n        self.transactionInfo[_id][_txIndex].data = _data;\n\n      uint256 confirmsNeeded = calcConfirmsNeeded(self.transactionInfo[_id][_txIndex].confirmRequired,\n                                               self.transactionInfo[_id][_txIndex].confirmCount);\n      emit LogTransactionConfirmed(_id, msg.sender, confirmsNeeded);\n    }\n\n    return (true,_id);\n  }\n\n  /* Confirm/Revoke functions using tx ID */\n\n  /// @dev Confirms a current pending tx, will execute if final confirmation\n  /// @param self Wallet in contract storage\n  /// @param _id ID of the transaction\n  /// @return Returns true if successful, false otherwise\n  function confirmTx(WalletData storage self, bytes32 _id)\n                     public returns (bool) {\n    require(self.ownerIndex[msg.sender] > 0);\n    uint256 _txIndex = self.transactionInfo[_id].length;\n    bool ret;\n\n    if(_txIndex == 0){\n      emit LogErrorMsg(_txIndex, \"Tx not initiated\");\n      emit LogTransactionFailed(_id, msg.sender);\n      return false;\n    }\n\n    _txIndex--;\n    bool allGood = checkNotConfirmed(self, _id, _txIndex);\n    if(!allGood)\n      return false;\n\n    self.transactionInfo[_id][_txIndex].confirmedOwners.push(uint256(msg.sender));\n    self.transactionInfo[_id][_txIndex].confirmCount++;\n\n    if(self.transactionInfo[_id][_txIndex].confirmCount ==\n       self.transactionInfo[_id][_txIndex].confirmRequired)\n    {\n      address a = address(this);\n      require(a.call(self.transactionInfo[_id][_txIndex].data));\n    } else {\n      uint256 confirmsNeeded = calcConfirmsNeeded(self.transactionInfo[_id][_txIndex].confirmRequired,\n                                               self.transactionInfo[_id][_txIndex].confirmCount);\n\n      emit LogTransactionConfirmed(_id, msg.sender, confirmsNeeded);\n      ret = true;\n    }\n\n    return ret;\n  }\n\n  /// @dev Revokes a prior confirmation from sender, call with tx ID\n  /// @param self Wallet in contract storage\n  /// @param _id ID of the transaction\n  /// @return Returns true if successful, false otherwise\n  function revokeConfirm(WalletData storage self, bytes32 _id)\n           public\n           returns (bool)\n  {\n    require(self.ownerIndex[msg.sender] > 0);\n    uint256 _txIndex = self.transactionInfo[_id].length;\n\n    if(_txIndex == 0){\n      emit LogErrorMsg(_txIndex, \"Tx not initiated\");\n      emit LogTransactionFailed(_id, msg.sender);\n      return false;\n    }\n\n    _txIndex--;\n    if(self.transactionInfo[_id][_txIndex].success){\n      emit LogErrorMsg(_txIndex, \"Transaction already complete\");\n      emit LogTransactionFailed(_id, msg.sender);\n      return false;\n    }\n\n    //Function from Modular.io array utility library\n    bool found;\n    uint256 index;\n    (found, index) = self.transactionInfo[_id][_txIndex].confirmedOwners.indexOf(uint256(msg.sender), false);\n    if(!found){\n      emit LogErrorMsg(index, \"Owner has not confirmed tx\");\n      emit LogTransactionFailed(_id, msg.sender);\n      return false;\n    }\n    self.transactionInfo[_id][_txIndex].confirmedOwners[index] = 0;\n    self.transactionInfo[_id][_txIndex].confirmCount--;\n\n    uint256 confirmsNeeded = calcConfirmsNeeded(self.transactionInfo[_id][_txIndex].confirmRequired,\n                                             self.transactionInfo[_id][_txIndex].confirmCount);\n    //Transaction removed if all sigs revoked but id remains in wallet transaction list\n    if(self.transactionInfo[_id][_txIndex].confirmCount == 0)\n      self.transactionInfo[_id].length--;\n\n    emit LogRevokeNotice(_id, msg.sender, confirmsNeeded);\n    return true;\n  }\n}\n",
  "sourcePath": "/Users/hackdom/Projects/ethereum-libraries-wallet/contracts/WalletMainLib.sol",
  "compiler": {
    "name": "solc",
    "version": "0.4.21+commit.dfe3193c.Emscripten.clang"
  },
  "schemaVersion": "2.0.0",
  "updatedAt": "2018-04-13T20:46:33.626Z"
}