{
  "contractName": "WalletGetterLib",
  "abi": [
    {
      "constant": true,
      "inputs": [
        {
          "name": "self",
          "type": "WalletMainLib.WalletData storage"
        }
      ],
      "name": "getOwners",
      "outputs": [
        {
          "name": "",
          "type": "address[51]"
        }
      ],
      "payable": false,
      "stateMutability": "view",
      "type": "function"
    },
    {
      "constant": true,
      "inputs": [
        {
          "name": "self",
          "type": "WalletMainLib.WalletData storage"
        },
        {
          "name": "_owner",
          "type": "address"
        }
      ],
      "name": "getOwnerIndex",
      "outputs": [
        {
          "name": "",
          "type": "uint256"
        }
      ],
      "payable": false,
      "stateMutability": "view",
      "type": "function"
    },
    {
      "constant": true,
      "inputs": [
        {
          "name": "self",
          "type": "WalletMainLib.WalletData storage"
        }
      ],
      "name": "getMaxOwners",
      "outputs": [
        {
          "name": "",
          "type": "uint256"
        }
      ],
      "payable": false,
      "stateMutability": "view",
      "type": "function"
    },
    {
      "constant": true,
      "inputs": [
        {
          "name": "self",
          "type": "WalletMainLib.WalletData storage"
        }
      ],
      "name": "getOwnerCount",
      "outputs": [
        {
          "name": "",
          "type": "uint256"
        }
      ],
      "payable": false,
      "stateMutability": "view",
      "type": "function"
    },
    {
      "constant": true,
      "inputs": [
        {
          "name": "self",
          "type": "WalletMainLib.WalletData storage"
        }
      ],
      "name": "getRequiredAdmin",
      "outputs": [
        {
          "name": "",
          "type": "uint256"
        }
      ],
      "payable": false,
      "stateMutability": "view",
      "type": "function"
    },
    {
      "constant": true,
      "inputs": [
        {
          "name": "self",
          "type": "WalletMainLib.WalletData storage"
        }
      ],
      "name": "getRequiredMinor",
      "outputs": [
        {
          "name": "",
          "type": "uint256"
        }
      ],
      "payable": false,
      "stateMutability": "view",
      "type": "function"
    },
    {
      "constant": true,
      "inputs": [
        {
          "name": "self",
          "type": "WalletMainLib.WalletData storage"
        }
      ],
      "name": "getRequiredMajor",
      "outputs": [
        {
          "name": "",
          "type": "uint256"
        }
      ],
      "payable": false,
      "stateMutability": "view",
      "type": "function"
    },
    {
      "constant": true,
      "inputs": [
        {
          "name": "self",
          "type": "WalletMainLib.WalletData storage"
        },
        {
          "name": "_token",
          "type": "address"
        }
      ],
      "name": "getCurrentSpend",
      "outputs": [
        {
          "name": "",
          "type": "uint256[2]"
        }
      ],
      "payable": false,
      "stateMutability": "view",
      "type": "function"
    },
    {
      "constant": true,
      "inputs": [
        {
          "name": "self",
          "type": "WalletMainLib.WalletData storage"
        },
        {
          "name": "_token",
          "type": "address"
        }
      ],
      "name": "getMajorThreshold",
      "outputs": [
        {
          "name": "",
          "type": "uint256"
        }
      ],
      "payable": false,
      "stateMutability": "view",
      "type": "function"
    },
    {
      "constant": true,
      "inputs": [
        {
          "name": "self",
          "type": "WalletMainLib.WalletData storage"
        },
        {
          "name": "_id",
          "type": "bytes32"
        }
      ],
      "name": "getTransactionLength",
      "outputs": [
        {
          "name": "",
          "type": "uint256"
        }
      ],
      "payable": false,
      "stateMutability": "view",
      "type": "function"
    },
    {
      "constant": true,
      "inputs": [
        {
          "name": "self",
          "type": "WalletMainLib.WalletData storage"
        },
        {
          "name": "_id",
          "type": "bytes32"
        },
        {
          "name": "_txIndex",
          "type": "uint256"
        }
      ],
      "name": "getTransactionConfirms",
      "outputs": [
        {
          "name": "",
          "type": "uint256[50]"
        }
      ],
      "payable": false,
      "stateMutability": "view",
      "type": "function"
    },
    {
      "constant": true,
      "inputs": [
        {
          "name": "self",
          "type": "WalletMainLib.WalletData storage"
        },
        {
          "name": "_id",
          "type": "bytes32"
        },
        {
          "name": "_txIndex",
          "type": "uint256"
        }
      ],
      "name": "getTransactionConfirmCount",
      "outputs": [
        {
          "name": "",
          "type": "uint256"
        }
      ],
      "payable": false,
      "stateMutability": "view",
      "type": "function"
    },
    {
      "constant": true,
      "inputs": [
        {
          "name": "self",
          "type": "WalletMainLib.WalletData storage"
        },
        {
          "name": "_id",
          "type": "bytes32"
        },
        {
          "name": "_txIndex",
          "type": "uint256"
        }
      ],
      "name": "getTransactionSuccess",
      "outputs": [
        {
          "name": "",
          "type": "bool"
        }
      ],
      "payable": false,
      "stateMutability": "view",
      "type": "function"
    }
  ],
  "bytecode": "0x610934610030600b82828239805160001a6073146000811461002057610022565bfe5b5030600052607381538281f30073000000000000000000000000000000000000000030146060604052600436106100dc576000357c0100000000000000000000000000000000000000000000000000000000900463ffffffff168063308d1c6c146100e157806338b463701461010d57806360eb3d861461014f57806367aedb341461017b57806373e7648e146101c65780638715dbd0146101f2578063a0913eaf1461021e578063a2568c8214610264578063a435ec2e146102ce578063d7f02e3114610319578063e4dcae7b14610352578063ea10bdc7146103a6578063f6d59b4614610419575b600080fd5b6100f76004808035906020019091905050610445565b6040518082815260200191505060405180910390f35b610139600480803590602001909190803560001916906020019091908035906020019091905050610453565b6040518082815260200191505060405180910390f35b610165600480803590602001909190505061049a565b6040518082815260200191505060405180910390f35b6101b0600480803590602001909190803573ffffffffffffffffffffffffffffffffffffffff169060200190919050506104a8565b6040518082815260200191505060405180910390f35b6101dc60048080359060200190919050506104f4565b6040518082815260200191505060405180910390f35b6102086004808035906020019091905050610502565b6040518082815260200191505060405180910390f35b61024a600480803590602001909190803560001916906020019091908035906020019091905050610516565b604051808215151515815260200191505060405180910390f35b61029060048080359060200190919080356000191690602001909190803590602001909190505061056a565b6040518082603260200280838360005b838110156102bb5780820151818401526020810190506102a0565b5050505090500191505060405180910390f35b610303600480803590602001909190803573ffffffffffffffffffffffffffffffffffffffff1690602001909190505061064a565b6040518082815260200191505060405180910390f35b61033c600480803590602001909190803560001916906020019091905050610696565b6040518082815260200191505060405180910390f35b61036860048080359060200190919050506106c1565b6040518082603360200280838360005b83811015610393578082015181840152602081019050610378565b5050505090500191505060405180910390f35b6103db600480803590602001909190803573ffffffffffffffffffffffffffffffffffffffff1690602001909190505061077f565b6040518082600260200280838360005b838110156104065780820151818401526020810190506103eb565b5050505090500191505060405180910390f35b61042f600480803590602001909190505061086b565b6040518082815260200191505060405180910390f35b600081600001549050919050565b600083600901600084600019166000191681526020019081526020016000208281548110151561047f57fe5b90600052602060002090600902016006015490509392505050565b600081600201549050919050565b60008260080160008373ffffffffffffffffffffffffffffffffffffffff1673ffffffffffffffffffffffffffffffffffffffff16815260200190815260200160002054905092915050565b600081600301549050919050565b600060018260010180549050039050919050565b600083600901600084600019166000191681526020019081526020016000208281548110151561054257fe5b906000526020600020906009020160080160009054906101000a900460ff1690509392505050565b610572610879565b61057a610879565b60008090505b8560090160008660001916600019168152602001908152602001600020848154811015156105aa57fe5b90600052602060002090600902016005018054905081101561063e578560090160008660001916600019168152602001908152602001600020848154811015156105f057fe5b90600052602060002090600902016005018181548110151561060e57fe5b906000526020600020900154828260328110151561062857fe5b6020020181815250508080600101915050610580565b81925050509392505050565b60008260060160008373ffffffffffffffffffffffffffffffffffffffff1673ffffffffffffffffffffffffffffffffffffffff16815260200190815260200160002054905092915050565b6000826009016000836000191660001916815260200190815260200160002080549050905092915050565b6106c96108a2565b6106d16108a2565b60008090505b83600101805490508110156107755783600101818154811015156106f757fe5b906000526020600020900160009054906101000a900473ffffffffffffffffffffffffffffffffffffffff16828260338110151561073157fe5b602002019073ffffffffffffffffffffffffffffffffffffffff16908173ffffffffffffffffffffffffffffffffffffffff168152505080806001019150506106d7565b8192505050919050565b6107876108e1565b61078f6108e1565b8360050160008473ffffffffffffffffffffffffffffffffffffffff1673ffffffffffffffffffffffffffffffffffffffff16815260200190815260200160002060006002811015156107de57fe5b01548160006002811015156107ef57fe5b6020020181815250508360050160008473ffffffffffffffffffffffffffffffffffffffff1673ffffffffffffffffffffffffffffffffffffffff168152602001908152602001600020600160028110151561084757fe5b015481600160028110151561085857fe5b6020020181815250508091505092915050565b600081600401549050919050565b610640604051908101604052806032905b600081526020019060019003908161088a5790505090565b610660604051908101604052806033905b600073ffffffffffffffffffffffffffffffffffffffff168152602001906001900390816108b35790505090565b60408051908101604052806002905b60008152602001906001900390816108f057905050905600a165627a7a7230582041f8efe789cd57ae660999ce8dfcff2a1d08b539d838d54fbd4e26d56d9485060029",
  "source": "pragma solidity ^0.4.21;\n\n/**\n * @title Wallet Getter Library\n * @author Modular.network\n *\n * version 1.2.0\n * Copyright (c) 2017 Modular, LLC\n * The MIT License (MIT)\n * https://github.com/Modular-network/ethereum-libraries/blob/master/LICENSE\n *\n * The Wallet Library family is inspired by the multisig wallets built by Consensys\n * at https://github.com/ConsenSys/MultiSigWallet and Parity at\n * https://github.com/paritytech/contracts/blob/master/Wallet.sol with added\n * functionality. Modular works on open source projects in the Ethereum\n * community with the purpose of testing, documenting, and deploying reusable\n * code onto the blockchain to improve security and usability of smart contracts.\n * Modular also strives to educate non-profits, schools, and other community\n * members about the application of blockchain technology. For further\n * information: modular.network, consensys.net, paritytech.io\n *\n * THE SOFTWARE IS PROVIDED \"AS IS\", WITHOUT WARRANTY OF ANY KIND, EXPRESS\n * OR IMPLIED, INCLUDING BUT NOT LIMITED TO THE WARRANTIES OF\n * MERCHANTABILITY, FITNESS FOR A PARTICULAR PURPOSE AND NONINFRINGEMENT.\n * IN NO EVENT SHALL THE AUTHORS OR COPYRIGHT HOLDERS BE LIABLE FOR ANY\n * CLAIM, DAMAGES OR OTHER LIABILITY, WHETHER IN AN ACTION OF CONTRACT,\n * TORT OR OTHERWISE, ARISING FROM, OUT OF OR IN CONNECTION WITH THE\n * SOFTWARE OR THE USE OR OTHER DEALINGS IN THE SOFTWARE.\n */\n\nimport \"./WalletMainLib.sol\";\n\nlibrary WalletGetterLib {\n\n  /*Getter Functions*/\n\n  /// @dev Get list of wallet owners, will return fixed 50 until fork\n  /// @param self Wallet in contract storage\n  /// @return address[51] Returns entire 51 owner slots\n  function getOwners(WalletMainLib.WalletData storage self) public view returns (address[51]) {\n    address[51] memory o;\n    for(uint256 i = 0; i<self.owners.length; i++){\n      o[i] = self.owners[i];\n    }\n    return o;\n  }\n\n  /// @dev Get index of an owner\n  /// @param self Wallet in contract storage\n  /// @param _owner Address of owner\n  /// @return uint256 Index of the owner\n  function getOwnerIndex(WalletMainLib.WalletData storage self, address _owner) public view returns (uint256) {\n    return self.ownerIndex[_owner];\n  }\n\n  /// @dev Get max number of wallet owners\n  /// @param self Wallet in contract storage\n  /// @return uint256 Maximum number of owners\n  function getMaxOwners(WalletMainLib.WalletData storage self) public view returns (uint256) {\n    return self.maxOwners;\n  }\n\n  /// @dev Get number of wallet owners\n  /// @param self Wallet in contract storage\n  /// @return uint256 Number of owners\n  function getOwnerCount(WalletMainLib.WalletData storage self) public view returns (uint256) {\n    return self.owners.length - 1;\n  }\n\n  /// @dev Get sig requirements for administrative changes\n  /// @param self Wallet in contract storage\n  /// @return uint256 Number of sigs required\n  function getRequiredAdmin(WalletMainLib.WalletData storage self) public view returns (uint256) {\n    return self.requiredAdmin;\n  }\n\n  /// @dev Get sig requirements for minor tx spends\n  /// @param self Wallet in contract storage\n  /// @return uint256 Number of sigs required\n  function getRequiredMinor(WalletMainLib.WalletData storage self) public view returns (uint256) {\n    return self.requiredMinor;\n  }\n\n  /// @dev Get sig requirements for major tx spends\n  /// @param self Wallet in contract storage\n  /// @return uint256 Number of sigs required\n  function getRequiredMajor(WalletMainLib.WalletData storage self) public view returns (uint256) {\n    return self.requiredMajor;\n  }\n\n  /// @dev Get current day spend for token\n  /// @param self Wallet in contract storage\n  /// @param _token Address of token, 0 for ether\n  /// @return uint256[2] 0-index is day timestamp, 1-index is the day spend\n  function getCurrentSpend(WalletMainLib.WalletData storage self, address _token) public view returns (uint256[2]) {\n    uint256[2] memory cs;\n    cs[0] = self.currentSpend[_token][0];\n    cs[1] = self.currentSpend[_token][1];\n    return cs;\n  }\n\n  /// @dev Get major tx threshold per token\n  /// @param self Wallet in contract storage\n  /// @param _token Address of token, 0 for ether\n  /// @return uint256 Threshold amount\n  function getMajorThreshold(WalletMainLib.WalletData storage self, address _token) public view returns (uint256) {\n    return self.majorThreshold[_token];\n  }\n\n  /// @dev Get the number of tx's with the same id\n  /// @param self Wallet in contract storage\n  /// @param _id ID of transactions requested\n  /// @return uint256 Number of tx's with same ID\n  function getTransactionLength(WalletMainLib.WalletData storage self, bytes32 _id) public view returns (uint256) {\n    return self.transactionInfo[_id].length;\n  }\n\n  /// @dev Get list of confirmations for a tx, use getTransactionLength to get latest number\n  /// @param self Wallet in contract storage\n  /// @param _id ID of transaction requested\n  /// @param _txIndex The transaction index number\n  /// @return uint256[50] Returns list of confirmations, fixed at 50 until fork\n  function getTransactionConfirms(WalletMainLib.WalletData storage self,\n                                  bytes32 _id,\n                                  uint256 _txIndex)\n                                  public view returns (uint256[50])\n  {\n    uint256[50] memory tc;\n    for(uint256 i = 0; i<self.transactionInfo[_id][_txIndex].confirmedOwners.length; i++){\n      tc[i] = self.transactionInfo[_id][_txIndex].confirmedOwners[i];\n    }\n    return tc;\n  }\n\n  /// @dev Retrieve tx confirmation count\n  /// @param self Wallet in contract storage\n  /// @param _id ID of transaction requested\n  /// @param _txIndex The transaction index number\n  /// @return uint256 Returns the current number of tx confirmations\n  function getTransactionConfirmCount(WalletMainLib.WalletData storage self,\n                           bytes32 _id,\n                           uint256 _txIndex)\n                           public view returns(uint256)\n  {\n    return self.transactionInfo[_id][_txIndex].confirmCount;\n  }\n\n  /// @dev Retrieve if transaction was successful\n  /// @param self Wallet in contract storage\n  /// @param _id ID of transaction requested\n  /// @param _txIndex The transaction index number\n  /// @return bool Returns true if tx successfully executed, false otherwise\n  function getTransactionSuccess(WalletMainLib.WalletData storage self,\n                                 bytes32 _id,\n                                 uint256 _txIndex)\n                                 public view returns (bool)\n  {\n    return self.transactionInfo[_id][_txIndex].success;\n  }\n}\n",
  "sourcePath": "/Users/hackdom/Projects/ethereum-libraries-wallet/contracts/WalletGetterLib.sol",
  "compiler": {
    "name": "solc",
    "version": "0.4.21+commit.dfe3193c.Emscripten.clang"
  },
  "schemaVersion": "2.0.0",
  "updatedAt": "2018-04-13T20:46:33.623Z"
}