{
  "contractName": "WalletAdminLib",
  "abi": [
    {
      "anonymous": false,
      "inputs": [
        {
          "indexed": false,
          "name": "txid",
          "type": "bytes32"
        },
        {
          "indexed": false,
          "name": "sender",
          "type": "address"
        },
        {
          "indexed": false,
          "name": "confirmsNeeded",
          "type": "uint256"
        }
      ],
      "name": "LogTransactionConfirmed",
      "type": "event"
    },
    {
      "anonymous": false,
      "inputs": [
        {
          "indexed": false,
          "name": "newOwner",
          "type": "address"
        }
      ],
      "name": "LogOwnerAdded",
      "type": "event"
    },
    {
      "anonymous": false,
      "inputs": [
        {
          "indexed": false,
          "name": "ownerRemoved",
          "type": "address"
        }
      ],
      "name": "LogOwnerRemoved",
      "type": "event"
    },
    {
      "anonymous": false,
      "inputs": [
        {
          "indexed": false,
          "name": "from",
          "type": "address"
        },
        {
          "indexed": false,
          "name": "to",
          "type": "address"
        }
      ],
      "name": "LogOwnerChanged",
      "type": "event"
    },
    {
      "anonymous": false,
      "inputs": [
        {
          "indexed": false,
          "name": "newRequired",
          "type": "uint256"
        }
      ],
      "name": "LogRequirementChange",
      "type": "event"
    },
    {
      "anonymous": false,
      "inputs": [
        {
          "indexed": false,
          "name": "token",
          "type": "address"
        },
        {
          "indexed": false,
          "name": "newThreshold",
          "type": "uint256"
        }
      ],
      "name": "LogThresholdChange",
      "type": "event"
    },
    {
      "anonymous": false,
      "inputs": [
        {
          "indexed": false,
          "name": "amount",
          "type": "uint256"
        },
        {
          "indexed": false,
          "name": "msg",
          "type": "string"
        }
      ],
      "name": "LogErrorMsg",
      "type": "event"
    },
    {
      "constant": false,
      "inputs": [
        {
          "name": "self",
          "type": "WalletMainLib.WalletData storage"
        },
        {
          "name": "_from",
          "type": "address"
        },
        {
          "name": "_to",
          "type": "address"
        },
        {
          "name": "_confirm",
          "type": "bool"
        },
        {
          "name": "_data",
          "type": "bytes"
        }
      ],
      "name": "changeOwner",
      "outputs": [
        {
          "name": "",
          "type": "bool"
        },
        {
          "name": "",
          "type": "bytes32"
        }
      ],
      "payable": false,
      "stateMutability": "nonpayable",
      "type": "function"
    },
    {
      "constant": false,
      "inputs": [
        {
          "name": "self",
          "type": "WalletMainLib.WalletData storage"
        },
        {
          "name": "_newOwner",
          "type": "address"
        },
        {
          "name": "_confirm",
          "type": "bool"
        },
        {
          "name": "_data",
          "type": "bytes"
        }
      ],
      "name": "addOwner",
      "outputs": [
        {
          "name": "",
          "type": "bool"
        },
        {
          "name": "",
          "type": "bytes32"
        }
      ],
      "payable": false,
      "stateMutability": "nonpayable",
      "type": "function"
    },
    {
      "constant": false,
      "inputs": [
        {
          "name": "self",
          "type": "WalletMainLib.WalletData storage"
        },
        {
          "name": "_ownerRemoving",
          "type": "address"
        },
        {
          "name": "_confirm",
          "type": "bool"
        },
        {
          "name": "_data",
          "type": "bytes"
        }
      ],
      "name": "removeOwner",
      "outputs": [
        {
          "name": "",
          "type": "bool"
        },
        {
          "name": "",
          "type": "bytes32"
        }
      ],
      "payable": false,
      "stateMutability": "nonpayable",
      "type": "function"
    },
    {
      "constant": false,
      "inputs": [
        {
          "name": "self",
          "type": "WalletMainLib.WalletData storage"
        },
        {
          "name": "_requiredAdmin",
          "type": "uint256"
        },
        {
          "name": "_confirm",
          "type": "bool"
        },
        {
          "name": "_data",
          "type": "bytes"
        }
      ],
      "name": "changeRequiredAdmin",
      "outputs": [
        {
          "name": "",
          "type": "bool"
        },
        {
          "name": "",
          "type": "bytes32"
        }
      ],
      "payable": false,
      "stateMutability": "nonpayable",
      "type": "function"
    },
    {
      "constant": false,
      "inputs": [
        {
          "name": "self",
          "type": "WalletMainLib.WalletData storage"
        },
        {
          "name": "_requiredMajor",
          "type": "uint256"
        },
        {
          "name": "_confirm",
          "type": "bool"
        },
        {
          "name": "_data",
          "type": "bytes"
        }
      ],
      "name": "changeRequiredMajor",
      "outputs": [
        {
          "name": "",
          "type": "bool"
        },
        {
          "name": "",
          "type": "bytes32"
        }
      ],
      "payable": false,
      "stateMutability": "nonpayable",
      "type": "function"
    },
    {
      "constant": false,
      "inputs": [
        {
          "name": "self",
          "type": "WalletMainLib.WalletData storage"
        },
        {
          "name": "_requiredMinor",
          "type": "uint256"
        },
        {
          "name": "_confirm",
          "type": "bool"
        },
        {
          "name": "_data",
          "type": "bytes"
        }
      ],
      "name": "changeRequiredMinor",
      "outputs": [
        {
          "name": "",
          "type": "bool"
        },
        {
          "name": "",
          "type": "bytes32"
        }
      ],
      "payable": false,
      "stateMutability": "nonpayable",
      "type": "function"
    },
    {
      "constant": false,
      "inputs": [
        {
          "name": "self",
          "type": "WalletMainLib.WalletData storage"
        },
        {
          "name": "_token",
          "type": "address"
        },
        {
          "name": "_majorThreshold",
          "type": "uint256"
        },
        {
          "name": "_confirm",
          "type": "bool"
        },
        {
          "name": "_data",
          "type": "bytes"
        }
      ],
      "name": "changeMajorThreshold",
      "outputs": [
        {
          "name": "",
          "type": "bool"
        },
        {
          "name": "",
          "type": "bytes32"
        }
      ],
      "payable": false,
      "stateMutability": "nonpayable",
      "type": "function"
    }
  ],
  "bytecode": "0x614b2b62000031600b82828239805160001a6073146000811461002157610023565bfe5b5030600052607381538281f300730000000000000000000000000000000000000000301460606040526004361061009a576000357c0100000000000000000000000000000000000000000000000000000000900463ffffffff1680631b9cdab31461009f5780632718ad16146101405780633f2e691c146102005780635b93789b146102b7578063bb46121f1461038d578063e081317a1461042e578063fc3f4d17146104cf575b600080fd5b81156100aa57600080fd5b6101176004808035906020019091908035906020019091908035151590602001909190803590602001908201803590602001908080601f01602080910402602001604051908101604052809392919081815260200183838082843782019150505050505091905050610586565b604051808315151515815260200182600019166000191681526020019250505060405180910390f35b811561014b57600080fd5b6101d7600480803590602001909190803573ffffffffffffffffffffffffffffffffffffffff16906020019091908035906020019091908035151590602001909190803590602001908201803590602001908080601f01602080910402602001604051908101604052809392919081815260200183838082843782019150505050505091905050610d63565b604051808315151515815260200182600019166000191681526020019250505060405180910390f35b811561020b57600080fd5b61028e600480803590602001909190803573ffffffffffffffffffffffffffffffffffffffff16906020019091908035151590602001909190803590602001908201803590602001908080601f016020809104026020016040519081016040528093929190818152602001838380828437820191505050505050919050506115c9565b604051808315151515815260200182600019166000191681526020019250505060405180910390f35b81156102c257600080fd5b610364600480803590602001909190803573ffffffffffffffffffffffffffffffffffffffff1690602001909190803573ffffffffffffffffffffffffffffffffffffffff16906020019091908035151590602001909190803590602001908201803590602001908080601f01602080910402602001604051908101604052809392919081815260200183838082843782019150505050505091905050611f25565b604051808315151515815260200182600019166000191681526020019250505060405180910390f35b811561039857600080fd5b6104056004808035906020019091908035906020019091908035151590602001909190803590602001908201803590602001908080601f01602080910402602001604051908101604052809392919081815260200183838082843782019150505050505091905050612982565b604051808315151515815260200182600019166000191681526020019250505060405180910390f35b811561043957600080fd5b6104a66004808035906020019091908035906020019091908035151590602001909190803590602001908201803590602001908080601f0160208091040260200160405190810160405280939291908181526020018383808284378201915050505050509190505061315f565b604051808315151515815260200182600019166000191681526020019250505060405180910390f35b81156104da57600080fd5b61055d600480803590602001909190803573ffffffffffffffffffffffffffffffffffffffff16906020019091908035151590602001909190803590602001908201803590602001908080601f0160208091040260200160405190810160405280939291908181526020018383808284378201915050505050509190505061393c565b604051808315151515815260200182600019166000191681526020019250505060405180910390f35b6000806000806000808860405180807f6368616e676552657175697265644d696e6f72000000000000000000000000008152506013018281526020019150506040518091039020935089600901600085600019166000191681526020019081526020016000208054905092503073ffffffffffffffffffffffffffffffffffffffff163373ffffffffffffffffffffffffffffffffffffffff16141515610a3f578715156106ce578973__WalletMainLib_________________________63cbf279f79091866040518363ffffffff167c01000000000000000000000000000000000000000000000000000000000281526004018083815260200182600019166000191681526020019250505060206040518083038186803b15156106aa57600080fd5b5af415156106b757600080fd5b505050604051805190509150818495509550610d56565b6000831480610725575089600901600085600019166000191681526020019081526020016000206001840381548110151561070557fe5b906000526020600020906009020160080160009054906101000a900460ff165b156108bd5760008a60080160003373ffffffffffffffffffffffffffffffffffffffff1673ffffffffffffffffffffffffffffffffffffffff1681526020019081526020016000205411151561077a57600080fd5b61078b898b600101805490506143cb565b91508115156107a65760008080600102905095509550610d56565b896009016000856000191660001916815260200190815260200160002080548091906001016107d59190614848565b5089600201548a600901600086600019166000191681526020019081526020016000208481548110151561080557fe5b906000526020600020906009020160070181905550620151804281151561082857fe5b048a600901600086600019166000191681526020019081526020016000208481548110151561085357fe5b906000526020600020906009020160000181905550896007016000620151804281151561087c57fe5b048152602001908152602001600020805480600101828161089d919061487a565b916000526020600020900160008690919091509060001916905550610977565b8280600190039350508973__WalletMainLib_________________________639ae196ff909186866040518463ffffffff167c0100000000000000000000000000000000000000000000000000000000028152600401808481526020018360001916600019168152602001828152602001935050505060206040518083038186803b151561094a57600080fd5b5af4151561095757600080fd5b5050506040518051905091508115156109765760008495509550610d56565b5b8960090160008560001916600019168152602001908152602001600020838154811015156109a157fe5b906000526020600020906009020160050180548060010182816109c491906148a6565b916000526020600020900160003373ffffffffffffffffffffffffffffffffffffffff1690919091505550896009016000856000191660001916815260200190815260200160002083815481101515610a1957fe5b906000526020600020906009020160060160008154809291906001019190505550610a49565b8280600190039350505b896009016000856000191660001916815260200190815260200160002083815481101515610a7357fe5b9060005260206000209060090201600701548a6009016000866000191660001916815260200190815260200160002084815481101515610aaf57fe5b9060005260206000209060090201600601541415610ba75760018a6009016000866000191660001916815260200190815260200160002084815481101515610af357fe5b906000526020600020906009020160080160006101000a81548160ff021916908315150217905550888a60040181905550896009016000856000191660001916815260200190815260200160002083815481101515610b4e57fe5b90600052602060002090600902016004016000610b6b91906148d2565b7f4147060af8b8b6220461c8690de43689af801659131a4b237409cb624c335aec896040518082815260200191505060405180910390a1610d4e565b60008a6009016000866000191660001916815260200190815260200160002084815481101515610bd357fe5b90600052602060002090600902016004018054600181600116156101000203166002900490501415610c5057868a6009016000866000191660001916815260200190815260200160002084815481101515610c2a57fe5b90600052602060002090600902016004019080519060200190610c4e92919061491a565b505b610cd08a6009016000866000191660001916815260200190815260200160002084815481101515610c7d57fe5b9060005260206000209060090201600701548b6009016000876000191660001916815260200190815260200160002085815481101515610cb957fe5b9060005260206000209060090201600601546144dd565b90507fef8dcc2e6089d6cdaf4b9e4488d780383081d593a692f3f2a0a75b1b27be61918433836040518084600019166000191681526020018373ffffffffffffffffffffffffffffffffffffffff1673ffffffffffffffffffffffffffffffffffffffff168152602001828152602001935050505060405180910390a15b600184955095505b5050505094509492505050565b600080600080600080898960405180807f6368616e67654d616a6f725468726573686f6c640000000000000000000000008152506014018373ffffffffffffffffffffffffffffffffffffffff1673ffffffffffffffffffffffffffffffffffffffff166c0100000000000000000000000002815260140182815260200192505050604051809103902093508a600901600085600019166000191681526020019081526020016000208054905092503073ffffffffffffffffffffffffffffffffffffffff163373ffffffffffffffffffffffffffffffffffffffff1614151561123357871515610eee578a73__WalletMainLib_________________________63cbf279f79091866040518363ffffffff167c01000000000000000000000000000000000000000000000000000000000281526004018083815260200182600019166000191681526020019250505060206040518083038186803b1515610eca57600080fd5b5af41515610ed757600080fd5b5050506040518051905091508184955095506115bb565b6000831480610f4557508a6009016000856000191660001916815260200190815260200160002060018403815481101515610f2557fe5b906000526020600020906009020160080160009054906101000a900460ff165b156110b15760008b60080160003373ffffffffffffffffffffffffffffffffffffffff1673ffffffffffffffffffffffffffffffffffffffff16815260200190815260200160002054111515610f9a57600080fd5b8a600901600085600019166000191681526020019081526020016000208054809190600101610fc99190614848565b508a600201548b6009016000866000191660001916815260200190815260200160002084815481101515610ff957fe5b906000526020600020906009020160070181905550620151804281151561101c57fe5b048b600901600086600019166000191681526020019081526020016000208481548110151561104757fe5b9060005260206000209060090201600001819055508a6007016000620151804281151561107057fe5b0481526020019081526020016000208054806001018281611091919061487a565b91600052602060002090016000869091909150906000191690555061116b565b8280600190039350508a73__WalletMainLib_________________________639ae196ff909186866040518463ffffffff167c0100000000000000000000000000000000000000000000000000000000028152600401808481526020018360001916600019168152602001828152602001935050505060206040518083038186803b151561113e57600080fd5b5af4151561114b57600080fd5b50505060405180519050915081151561116a57600084955095506115bb565b5b8a600901600085600019166000191681526020019081526020016000208381548110151561119557fe5b906000526020600020906009020160050180548060010182816111b891906148a6565b916000526020600020900160003373ffffffffffffffffffffffffffffffffffffffff16909190915055508a600901600085600019166000191681526020019081526020016000208381548110151561120d57fe5b90600052602060002090600902016006016000815480929190600101919050555061123d565b8280600190039350505b8a600901600085600019166000191681526020019081526020016000208381548110151561126757fe5b9060005260206000209060090201600701548b60090160008660001916600019168152602001908152602001600020848154811015156112a357fe5b906000526020600020906009020160060154141561140c5760018b60090160008660001916600019168152602001908152602001600020848154811015156112e757fe5b906000526020600020906009020160080160006101000a81548160ff021916908315150217905550888b60060160008c73ffffffffffffffffffffffffffffffffffffffff1673ffffffffffffffffffffffffffffffffffffffff168152602001908152602001600020819055508a600901600085600019166000191681526020019081526020016000208381548110151561137f57fe5b9060005260206000209060090201600401600061139c91906148d2565b7f852263aabb70901bb9e3af9255bb21bccc915caa34e732a5adffb53f5102505f8a8a604051808373ffffffffffffffffffffffffffffffffffffffff1673ffffffffffffffffffffffffffffffffffffffff1681526020018281526020019250505060405180910390a16115b3565b60008b600901600086600019166000191681526020019081526020016000208481548110151561143857fe5b906000526020600020906009020160040180546001816001161561010002031660029004905014156114b557868b600901600086600019166000191681526020019081526020016000208481548110151561148f57fe5b906000526020600020906009020160040190805190602001906114b392919061491a565b505b6115358b60090160008660001916600019168152602001908152602001600020848154811015156114e257fe5b9060005260206000209060090201600701548c600901600087600019166000191681526020019081526020016000208581548110151561151e57fe5b9060005260206000209060090201600601546144dd565b90507fef8dcc2e6089d6cdaf4b9e4488d780383081d593a692f3f2a0a75b1b27be61918433836040518084600019166000191681526020018373ffffffffffffffffffffffffffffffffffffffff1673ffffffffffffffffffffffffffffffffffffffff168152602001828152602001935050505060405180910390a15b600184955095505b505050509550959350505050565b6000806000806000808860405180807f6164644f776e65720000000000000000000000000000000000000000000000008152506008018273ffffffffffffffffffffffffffffffffffffffff1673ffffffffffffffffffffffffffffffffffffffff166c010000000000000000000000000281526014019150506040518091039020935089600901600085600019166000191681526020019081526020016000208054905092503073ffffffffffffffffffffffffffffffffffffffff163373ffffffffffffffffffffffffffffffffffffffff16141515611b295760008973ffffffffffffffffffffffffffffffffffffffff16141515156116cb57600080fd5b871515611772578973__WalletMainLib_________________________63cbf279f79091866040518363ffffffff167c01000000000000000000000000000000000000000000000000000000000281526004018083815260200182600019166000191681526020019250505060206040518083038186803b151561174e57600080fd5b5af4151561175b57600080fd5b505050604051805190509150818495509550611f18565b60008314806117c957508960090160008560001916600019168152602001908152602001600020600184038154811015156117a957fe5b906000526020600020906009020160080160009054906101000a900460ff165b156119a75760008a60080160003373ffffffffffffffffffffffffffffffffffffffff1673ffffffffffffffffffffffffffffffffffffffff1681526020019081526020016000205411151561181e57600080fd5b6118758a60080160008b73ffffffffffffffffffffffffffffffffffffffff1673ffffffffffffffffffffffffffffffffffffffff168152602001908152602001600020548b600101805490508c600001546144ea565b91508115156118905760008080600102905095509550611f18565b896009016000856000191660001916815260200190815260200160002080548091906001016118bf9190614848565b5089600201548a60090160008660001916600019168152602001908152602001600020848154811015156118ef57fe5b906000526020600020906009020160070181905550620151804281151561191257fe5b048a600901600086600019166000191681526020019081526020016000208481548110151561193d57fe5b906000526020600020906009020160000181905550896007016000620151804281151561196657fe5b0481526020019081526020016000208054806001018281611987919061487a565b916000526020600020900160008690919091509060001916905550611a61565b8280600190039350508973__WalletMainLib_________________________639ae196ff909186866040518463ffffffff167c0100000000000000000000000000000000000000000000000000000000028152600401808481526020018360001916600019168152602001828152602001935050505060206040518083038186803b1515611a3457600080fd5b5af41515611a4157600080fd5b505050604051805190509150811515611a605760008495509550611f18565b5b896009016000856000191660001916815260200190815260200160002083815481101515611a8b57fe5b90600052602060002090600902016005018054806001018281611aae91906148a6565b916000526020600020900160003373ffffffffffffffffffffffffffffffffffffffff1690919091505550896009016000856000191660001916815260200190815260200160002083815481101515611b0357fe5b906000526020600020906009020160060160008154809291906001019190505550611b33565b8280600190039350505b896009016000856000191660001916815260200190815260200160002083815481101515611b5d57fe5b9060005260206000209060090201600701548a6009016000866000191660001916815260200190815260200160002084815481101515611b9957fe5b9060005260206000209060090201600601541415611d695760018a6009016000866000191660001916815260200190815260200160002084815481101515611bdd57fe5b906000526020600020906009020160080160006101000a81548160ff021916908315150217905550896001018054806001018281611c1b919061499a565b916000526020600020900160008b909190916101000a81548173ffffffffffffffffffffffffffffffffffffffff021916908373ffffffffffffffffffffffffffffffffffffffff1602179055505060018a60010180549050038a60080160008b73ffffffffffffffffffffffffffffffffffffffff1673ffffffffffffffffffffffffffffffffffffffff16815260200190815260200160002081905550896009016000856000191660001916815260200190815260200160002083815481101515611ce457fe5b90600052602060002090600902016004016000611d0191906148d2565b7f5345c41500b4b3b852712efe48a8aca66a07e68dafe472cdf152bb1f8cf0dee789604051808273ffffffffffffffffffffffffffffffffffffffff1673ffffffffffffffffffffffffffffffffffffffff16815260200191505060405180910390a1611f10565b60008a6009016000866000191660001916815260200190815260200160002084815481101515611d9557fe5b90600052602060002090600902016004018054600181600116156101000203166002900490501415611e1257868a6009016000866000191660001916815260200190815260200160002084815481101515611dec57fe5b90600052602060002090600902016004019080519060200190611e1092919061491a565b505b611e928a6009016000866000191660001916815260200190815260200160002084815481101515611e3f57fe5b9060005260206000209060090201600701548b6009016000876000191660001916815260200190815260200160002085815481101515611e7b57fe5b9060005260206000209060090201600601546144dd565b90507fef8dcc2e6089d6cdaf4b9e4488d780383081d593a692f3f2a0a75b1b27be61918433836040518084600019166000191681526020018373ffffffffffffffffffffffffffffffffffffffff1673ffffffffffffffffffffffffffffffffffffffff168152602001828152602001935050505060405180910390a15b600184955095505b5050505094509492505050565b60008060008060008060008a8a60405180807f6368616e67654f776e6572000000000000000000000000000000000000000000815250600b018373ffffffffffffffffffffffffffffffffffffffff1673ffffffffffffffffffffffffffffffffffffffff166c010000000000000000000000000281526014018273ffffffffffffffffffffffffffffffffffffffff1673ffffffffffffffffffffffffffffffffffffffff166c0100000000000000000000000002815260140192505050604051809103902094508b600901600086600019166000191681526020019081526020016000208054905093503073ffffffffffffffffffffffffffffffffffffffff163373ffffffffffffffffffffffffffffffffffffffff161415156124d9578815156120ed578b73__WalletMainLib_________________________63cbf279f79091876040518363ffffffff167c01000000000000000000000000000000000000000000000000000000000281526004018083815260200182600019166000191681526020019250505060206040518083038186803b15156120c957600080fd5b5af415156120d657600080fd5b505050604051805190509250828596509650612973565b600084148061214457508b600901600086600019166000191681526020019081526020016000206001850381548110151561212457fe5b906000526020600020906009020160080160009054906101000a900460ff165b156123575760008c60080160003373ffffffffffffffffffffffffffffffffffffffff1673ffffffffffffffffffffffffffffffffffffffff1681526020019081526020016000205411151561219957600080fd5b6122258c60080160008d73ffffffffffffffffffffffffffffffffffffffff1673ffffffffffffffffffffffffffffffffffffffff168152602001908152602001600020548d60080160008d73ffffffffffffffffffffffffffffffffffffffff1673ffffffffffffffffffffffffffffffffffffffff168152602001908152602001600020546145fe565b92508215156122405760008080600102905096509650612973565b8b60090160008660001916600019168152602001908152602001600020805480919060010161226f9190614848565b508b600201548c600901600087600019166000191681526020019081526020016000208581548110151561229f57fe5b90600052602060002090600902016007018190555062015180428115156122c257fe5b048c60090160008760001916600019168152602001908152602001600020858154811015156122ed57fe5b9060005260206000209060090201600001819055508b6007016000620151804281151561231657fe5b0481526020019081526020016000208054806001018281612337919061487a565b916000526020600020900160008790919091509060001916905550612411565b8380600190039450508b73__WalletMainLib_________________________639ae196ff909187876040518463ffffffff167c0100000000000000000000000000000000000000000000000000000000028152600401808481526020018360001916600019168152602001828152602001935050505060206040518083038186803b15156123e457600080fd5b5af415156123f157600080fd5b5050506040518051905092508215156124105760008596509650612973565b5b8b600901600086600019166000191681526020019081526020016000208481548110151561243b57fe5b9060005260206000209060090201600501805480600101828161245e91906148a6565b916000526020600020900160003373ffffffffffffffffffffffffffffffffffffffff16909190915055508b60090160008660001916600019168152602001908152602001600020848154811015156124b357fe5b9060005260206000209060090201600601600081548092919060010191905055506124e3565b8380600190039450505b8b600901600086600019166000191681526020019081526020016000208481548110151561250d57fe5b9060005260206000209060090201600701548c600901600087600019166000191681526020019081526020016000208581548110151561254957fe5b90600052602060002090600902016006015414156127c45760018c600901600087600019166000191681526020019081526020016000208581548110151561258d57fe5b906000526020600020906009020160080160006101000a81548160ff0219169083151502179055508b60080160008c73ffffffffffffffffffffffffffffffffffffffff1673ffffffffffffffffffffffffffffffffffffffff16815260200190815260200160002054915060008c60080160008d73ffffffffffffffffffffffffffffffffffffffff1673ffffffffffffffffffffffffffffffffffffffff16815260200190815260200160002081905550898c6001018381548110151561265257fe5b906000526020600020900160006101000a81548173ffffffffffffffffffffffffffffffffffffffff021916908373ffffffffffffffffffffffffffffffffffffffff160217905550818c60080160008c73ffffffffffffffffffffffffffffffffffffffff1673ffffffffffffffffffffffffffffffffffffffff168152602001908152602001600020819055508b600901600086600019166000191681526020019081526020016000208481548110151561270b57fe5b9060005260206000209060090201600401600061272891906148d2565b7ffcf23a92150d56e85e3a3d33b357493246e55783095eb6a733eb8439ffc752c88b8b604051808373ffffffffffffffffffffffffffffffffffffffff1673ffffffffffffffffffffffffffffffffffffffff1681526020018273ffffffffffffffffffffffffffffffffffffffff1673ffffffffffffffffffffffffffffffffffffffff1681526020019250505060405180910390a161296b565b60008c60090160008760001916600019168152602001908152602001600020858154811015156127f057fe5b9060005260206000209060090201600401805460018160011615610100020316600290049050141561286d57878c600901600087600019166000191681526020019081526020016000208581548110151561284757fe5b9060005260206000209060090201600401908051906020019061286b92919061491a565b505b6128ed8c600901600087600019166000191681526020019081526020016000208581548110151561289a57fe5b9060005260206000209060090201600701548d60090160008860001916600019168152602001908152602001600020868154811015156128d657fe5b9060005260206000209060090201600601546144dd565b90507fef8dcc2e6089d6cdaf4b9e4488d780383081d593a692f3f2a0a75b1b27be61918533836040518084600019166000191681526020018373ffffffffffffffffffffffffffffffffffffffff1673ffffffffffffffffffffffffffffffffffffffff168152602001828152602001935050505060405180910390a15b600185965096505b50505050509550959350505050565b6000806000806000808860405180807f6368616e6765526571756972656441646d696e000000000000000000000000008152506013018281526020019150506040518091039020935089600901600085600019166000191681526020019081526020016000208054905092503073ffffffffffffffffffffffffffffffffffffffff163373ffffffffffffffffffffffffffffffffffffffff16141515612e3b57871515612aca578973__WalletMainLib_________________________63cbf279f79091866040518363ffffffff167c01000000000000000000000000000000000000000000000000000000000281526004018083815260200182600019166000191681526020019250505060206040518083038186803b1515612aa657600080fd5b5af41515612ab357600080fd5b505050604051805190509150818495509550613152565b6000831480612b215750896009016000856000191660001916815260200190815260200160002060018403815481101515612b0157fe5b906000526020600020906009020160080160009054906101000a900460ff165b15612cb95760008a60080160003373ffffffffffffffffffffffffffffffffffffffff1673ffffffffffffffffffffffffffffffffffffffff16815260200190815260200160002054111515612b7657600080fd5b612b87898b600101805490506143cb565b9150811515612ba25760008080600102905095509550613152565b89600901600085600019166000191681526020019081526020016000208054809190600101612bd19190614848565b5089600201548a6009016000866000191660001916815260200190815260200160002084815481101515612c0157fe5b9060005260206000209060090201600701819055506201518042811515612c2457fe5b048a6009016000866000191660001916815260200190815260200160002084815481101515612c4f57fe5b9060005260206000209060090201600001819055508960070160006201518042811515612c7857fe5b0481526020019081526020016000208054806001018281612c99919061487a565b916000526020600020900160008690919091509060001916905550612d73565b8280600190039350508973__WalletMainLib_________________________639ae196ff909186866040518463ffffffff167c0100000000000000000000000000000000000000000000000000000000028152600401808481526020018360001916600019168152602001828152602001935050505060206040518083038186803b1515612d4657600080fd5b5af41515612d5357600080fd5b505050604051805190509150811515612d725760008495509550613152565b5b896009016000856000191660001916815260200190815260200160002083815481101515612d9d57fe5b90600052602060002090600902016005018054806001018281612dc091906148a6565b916000526020600020900160003373ffffffffffffffffffffffffffffffffffffffff1690919091505550896009016000856000191660001916815260200190815260200160002083815481101515612e1557fe5b906000526020600020906009020160060160008154809291906001019190505550612e45565b8280600190039350505b896009016000856000191660001916815260200190815260200160002083815481101515612e6f57fe5b9060005260206000209060090201600701548a6009016000866000191660001916815260200190815260200160002084815481101515612eab57fe5b9060005260206000209060090201600601541415612fa35760018a6009016000866000191660001916815260200190815260200160002084815481101515612eef57fe5b906000526020600020906009020160080160006101000a81548160ff021916908315150217905550888a60020181905550896009016000856000191660001916815260200190815260200160002083815481101515612f4a57fe5b90600052602060002090600902016004016000612f6791906148d2565b7f4147060af8b8b6220461c8690de43689af801659131a4b237409cb624c335aec896040518082815260200191505060405180910390a161314a565b60008a6009016000866000191660001916815260200190815260200160002084815481101515612fcf57fe5b9060005260206000209060090201600401805460018160011615610100020316600290049050141561304c57868a600901600086600019166000191681526020019081526020016000208481548110151561302657fe5b9060005260206000209060090201600401908051906020019061304a92919061491a565b505b6130cc8a600901600086600019166000191681526020019081526020016000208481548110151561307957fe5b9060005260206000209060090201600701548b60090160008760001916600019168152602001908152602001600020858154811015156130b557fe5b9060005260206000209060090201600601546144dd565b90507fef8dcc2e6089d6cdaf4b9e4488d780383081d593a692f3f2a0a75b1b27be61918433836040518084600019166000191681526020018373ffffffffffffffffffffffffffffffffffffffff1673ffffffffffffffffffffffffffffffffffffffff168152602001828152602001935050505060405180910390a15b600184955095505b5050505094509492505050565b6000806000806000808860405180807f6368616e676552657175697265644d616a6f72000000000000000000000000008152506013018281526020019150506040518091039020935089600901600085600019166000191681526020019081526020016000208054905092503073ffffffffffffffffffffffffffffffffffffffff163373ffffffffffffffffffffffffffffffffffffffff16141515613618578715156132a7578973__WalletMainLib_________________________63cbf279f79091866040518363ffffffff167c01000000000000000000000000000000000000000000000000000000000281526004018083815260200182600019166000191681526020019250505060206040518083038186803b151561328357600080fd5b5af4151561329057600080fd5b50505060405180519050915081849550955061392f565b60008314806132fe57508960090160008560001916600019168152602001908152602001600020600184038154811015156132de57fe5b906000526020600020906009020160080160009054906101000a900460ff165b156134965760008a60080160003373ffffffffffffffffffffffffffffffffffffffff1673ffffffffffffffffffffffffffffffffffffffff1681526020019081526020016000205411151561335357600080fd5b613364898b600101805490506143cb565b915081151561337f576000808060010290509550955061392f565b896009016000856000191660001916815260200190815260200160002080548091906001016133ae9190614848565b5089600201548a60090160008660001916600019168152602001908152602001600020848154811015156133de57fe5b906000526020600020906009020160070181905550620151804281151561340157fe5b048a600901600086600019166000191681526020019081526020016000208481548110151561342c57fe5b906000526020600020906009020160000181905550896007016000620151804281151561345557fe5b0481526020019081526020016000208054806001018281613476919061487a565b916000526020600020900160008690919091509060001916905550613550565b8280600190039350508973__WalletMainLib_________________________639ae196ff909186866040518463ffffffff167c0100000000000000000000000000000000000000000000000000000000028152600401808481526020018360001916600019168152602001828152602001935050505060206040518083038186803b151561352357600080fd5b5af4151561353057600080fd5b50505060405180519050915081151561354f576000849550955061392f565b5b89600901600085600019166000191681526020019081526020016000208381548110151561357a57fe5b9060005260206000209060090201600501805480600101828161359d91906148a6565b916000526020600020900160003373ffffffffffffffffffffffffffffffffffffffff16909190915055508960090160008560001916600019168152602001908152602001600020838154811015156135f257fe5b906000526020600020906009020160060160008154809291906001019190505550613622565b8280600190039350505b89600901600085600019166000191681526020019081526020016000208381548110151561364c57fe5b9060005260206000209060090201600701548a600901600086600019166000191681526020019081526020016000208481548110151561368857fe5b90600052602060002090600902016006015414156137805760018a60090160008660001916600019168152602001908152602001600020848154811015156136cc57fe5b906000526020600020906009020160080160006101000a81548160ff021916908315150217905550888a6003018190555089600901600085600019166000191681526020019081526020016000208381548110151561372757fe5b9060005260206000209060090201600401600061374491906148d2565b7f4147060af8b8b6220461c8690de43689af801659131a4b237409cb624c335aec896040518082815260200191505060405180910390a1613927565b60008a60090160008660001916600019168152602001908152602001600020848154811015156137ac57fe5b9060005260206000209060090201600401805460018160011615610100020316600290049050141561382957868a600901600086600019166000191681526020019081526020016000208481548110151561380357fe5b9060005260206000209060090201600401908051906020019061382792919061491a565b505b6138a98a600901600086600019166000191681526020019081526020016000208481548110151561385657fe5b9060005260206000209060090201600701548b600901600087600019166000191681526020019081526020016000208581548110151561389257fe5b9060005260206000209060090201600601546144dd565b90507fef8dcc2e6089d6cdaf4b9e4488d780383081d593a692f3f2a0a75b1b27be61918433836040518084600019166000191681526020018373ffffffffffffffffffffffffffffffffffffffff1673ffffffffffffffffffffffffffffffffffffffff168152602001828152602001935050505060405180910390a15b600184955095505b5050505094509492505050565b6000806000806000808860405180807f72656d6f76654f776e6572000000000000000000000000000000000000000000815250600b018273ffffffffffffffffffffffffffffffffffffffff1673ffffffffffffffffffffffffffffffffffffffff166c010000000000000000000000000281526014019150506040518091039020935089600901600085600019166000191681526020019081526020016000208054905092503073ffffffffffffffffffffffffffffffffffffffff163373ffffffffffffffffffffffffffffffffffffffff16141515613e7657871515613abf578973__WalletMainLib_________________________63cbf279f79091866040518363ffffffff167c01000000000000000000000000000000000000000000000000000000000281526004018083815260200182600019166000191681526020019250505060206040518083038186803b1515613a9b57600080fd5b5af41515613aa857600080fd5b5050506040518051905091508184955095506143be565b6000831480613b165750896009016000856000191660001916815260200190815260200160002060018403815481101515613af657fe5b906000526020600020906009020160080160009054906101000a900460ff165b15613cf45760008a60080160003373ffffffffffffffffffffffffffffffffffffffff1673ffffffffffffffffffffffffffffffffffffffff16815260200190815260200160002054111515613b6b57600080fd5b613bc28a60080160008b73ffffffffffffffffffffffffffffffffffffffff1673ffffffffffffffffffffffffffffffffffffffff168152602001908152602001600020548b600101805490508c60020154614735565b9150811515613bdd57600080806001029050955095506143be565b89600901600085600019166000191681526020019081526020016000208054809190600101613c0c9190614848565b5089600201548a6009016000866000191660001916815260200190815260200160002084815481101515613c3c57fe5b9060005260206000209060090201600701819055506201518042811515613c5f57fe5b048a6009016000866000191660001916815260200190815260200160002084815481101515613c8a57fe5b9060005260206000209060090201600001819055508960070160006201518042811515613cb357fe5b0481526020019081526020016000208054806001018281613cd4919061487a565b916000526020600020900160008690919091509060001916905550613dae565b8280600190039350508973__WalletMainLib_________________________639ae196ff909186866040518463ffffffff167c0100000000000000000000000000000000000000000000000000000000028152600401808481526020018360001916600019168152602001828152602001935050505060206040518083038186803b1515613d8157600080fd5b5af41515613d8e57600080fd5b505050604051805190509150811515613dad57600084955095506143be565b5b896009016000856000191660001916815260200190815260200160002083815481101515613dd857fe5b90600052602060002090600902016005018054806001018281613dfb91906148a6565b916000526020600020900160003373ffffffffffffffffffffffffffffffffffffffff1690919091505550896009016000856000191660001916815260200190815260200160002083815481101515613e5057fe5b906000526020600020906009020160060160008154809291906001019190505550613e80565b8280600190039350505b896009016000856000191660001916815260200190815260200160002083815481101515613eaa57fe5b9060005260206000209060090201600701548a6009016000866000191660001916815260200190815260200160002084815481101515613ee657fe5b906000526020600020906009020160060154141561420f5760018a6009016000866000191660001916815260200190815260200160002084815481101515613f2a57fe5b906000526020600020906009020160080160006101000a81548160ff0219169083151502179055508960010160018b6001018054905003815481101515613f6d57fe5b906000526020600020900160009054906101000a900473ffffffffffffffffffffffffffffffffffffffff168a6001018b60080160008c73ffffffffffffffffffffffffffffffffffffffff1673ffffffffffffffffffffffffffffffffffffffff16815260200190815260200160002054815481101515613feb57fe5b906000526020600020900160006101000a81548173ffffffffffffffffffffffffffffffffffffffff021916908373ffffffffffffffffffffffffffffffffffffffff1602179055508960080160008a73ffffffffffffffffffffffffffffffffffffffff1673ffffffffffffffffffffffffffffffffffffffff168152602001908152602001600020548a60080160008c60010160018e600101805490500381548110151561409757fe5b906000526020600020900160009054906101000a900473ffffffffffffffffffffffffffffffffffffffff1673ffffffffffffffffffffffffffffffffffffffff1673ffffffffffffffffffffffffffffffffffffffff1681526020019081526020016000208190555060008a60080160008b73ffffffffffffffffffffffffffffffffffffffff1673ffffffffffffffffffffffffffffffffffffffff168152602001908152602001600020819055508960010180548091906001900361415f91906149c6565b5089600901600085600019166000191681526020019081526020016000208381548110151561418a57fe5b906000526020600020906009020160040160006141a791906148d2565b7fcced2bb6be71c58ec6a1d84c3426108fe5d99c01bb4003687fb8edf6c147043389604051808273ffffffffffffffffffffffffffffffffffffffff1673ffffffffffffffffffffffffffffffffffffffff16815260200191505060405180910390a16143b6565b60008a600901600086600019166000191681526020019081526020016000208481548110151561423b57fe5b906000526020600020906009020160040180546001816001161561010002031660029004905014156142b857868a600901600086600019166000191681526020019081526020016000208481548110151561429257fe5b906000526020600020906009020160040190805190602001906142b692919061491a565b505b6143388a60090160008660001916600019168152602001908152602001600020848154811015156142e557fe5b9060005260206000209060090201600701548b600901600087600019166000191681526020019081526020016000208581548110151561432157fe5b9060005260206000209060090201600601546144dd565b90507fef8dcc2e6089d6cdaf4b9e4488d780383081d593a692f3f2a0a75b1b27be61918433836040518084600019166000191681526020018373ffffffffffffffffffffffffffffffffffffffff1673ffffffffffffffffffffffffffffffffffffffff168152602001828152602001935050505060405180910390a15b600184955095505b5050505094509492505050565b60008083141561444e577f8756f3e78da606244d7d8c9563ce2678f294db7c57afce515849e03d5eec6c3a836040518082815260200180602001828103825260108152602001807f43616e742072656475636520746f2030000000000000000000000000000000008152506020019250505060405180910390a1600090506144d7565b826002830310156144d2577f8756f3e78da606244d7d8c9563ce2678f294db7c57afce515849e03d5eec6c3a8260405180828152602001806020018281038252601b8152602001807f4d616b696e6720726571756972656d656e7420746f6f206869676800000000008152506020019250505060405180910390a1600090506144d7565b600190505b92915050565b6000818303905092915050565b6000808414151561456e577f8756f3e78da606244d7d8c9563ce2678f294db7c57afce515849e03d5eec6c3a846040518082815260200180602001828103825260178152602001807f4e6577206f776e657220616c7265616479206f776e65720000000000000000008152506020019250505060405180910390a1600090506145f7565b816001840111156145f2577f8756f3e78da606244d7d8c9563ce2678f294db7c57afce515849e03d5eec6c3a8360405180828152602001806020018281038252600f8152602001807f546f6f206d616e79206f776e65727300000000000000000000000000000000008152506020019250505060405180910390a1600090506145f7565b600190505b9392505050565b6000808314156146a7577f8756f3e78da606244d7d8c9563ce2678f294db7c57afce515849e03d5eec6c3a836040518082815260200180602001828103825260238152602001807f4368616e67652066726f6d2061646472657373206973206e6f7420616e206f7781526020017f6e657200000000000000000000000000000000000000000000000000000000008152506040019250505060405180910390a16000905061472f565b60008214151561472a577f8756f3e78da606244d7d8c9563ce2678f294db7c57afce515849e03d5eec6c3a8260405180828152602001806020018281038252601d8152602001807f4368616e676520746f206164647265737320697320616e206f776e65720000008152506020019250505060405180910390a16000905061472f565b600190505b92915050565b6000808414156147b8577f8756f3e78da606244d7d8c9563ce2678f294db7c57afce515849e03d5eec6c3a8460405180828152602001806020018281038252601b8152602001807f4f776e65722072656d6f76696e67206e6f7420616e206f776e657200000000008152506020019250505060405180910390a160009050614841565b8160028403101561483c577f8756f3e78da606244d7d8c9563ce2678f294db7c57afce515849e03d5eec6c3a8460405180828152602001806020018281038252601f8152602001807f4d7573742072656475636520726571756972656441646d696e206669727374008152506020019250505060405180910390a160009050614841565b600190505b9392505050565b8154818355818115116148755760090281600902836000526020600020918201910161487491906149f2565b5b505050565b8154818355818115116148a1578183600052602060002091820191016148a09190614a94565b5b505050565b8154818355818115116148cd578183600052602060002091820191016148cc9190614ab9565b5b505050565b50805460018160011615610100020316600290046000825580601f106148f85750614917565b601f0160209004906000526020600020908101906149169190614ab9565b5b50565b828054600181600116156101000203166002900490600052602060002090601f016020900481019282601f1061495b57805160ff1916838001178555614989565b82800160010185558215614989579182015b8281111561498857825182559160200191906001019061496d565b5b5090506149969190614ab9565b5090565b8154818355818115116149c1578183600052602060002091820191016149c09190614ab9565b5b505050565b8154818355818115116149ed578183600052602060002091820191016149ec9190614ab9565b5b505050565b614a9191905b80821115614a8d5760008082016000905560018201600090556002820160006101000a81549073ffffffffffffffffffffffffffffffffffffffff02191690556003820160009055600482016000614a5091906148d2565b600582016000614a609190614ade565b600682016000905560078201600090556008820160006101000a81549060ff0219169055506009016149f8565b5090565b90565b614ab691905b80821115614ab2576000816000905550600101614a9a565b5090565b90565b614adb91905b80821115614ad7576000816000905550600101614abf565b5090565b90565b5080546000825590600052602060002090810190614afc9190614ab9565b505600a165627a7a72305820e5ba2588584744385c22f3dbe45724e9fa8ffb94dea68294b8fcef625c3f8bcf0029",
  "source": "pragma solidity ^0.4.21;\n\n/**\n * @title Wallet Admin Library\n * @author Modular.network\n *\n * version 1.2.0\n * Copyright (c) 2017 Modular, Inc\n * The MIT License (MIT)\n * https://github.com/Modular-Network/ethereum-libraries/blob/master/LICENSE\n *\n * The Wallet Library family is inspired by the multisig wallets built by Consensys\n * at https://github.com/ConsenSys/MultiSigWallet and Parity at\n * https://github.com/paritytech/contracts/blob/master/Wallet.sol with added\n * functionality. Modular works on open source projects in the Ethereum\n * community with the purpose of testing, documenting, and deploying reusable\n * code onto the blockchain to improve security and usability of smart contracts.\n * Modular also strives to educate non-profits, schools, and other community\n * members about the application of blockchain technology. For further\n * information: modular.network, consensys.net, paritytech.io\n *\n * THE SOFTWARE IS PROVIDED \"AS IS\", WITHOUT WARRANTY OF ANY KIND, EXPRESS\n * OR IMPLIED, INCLUDING BUT NOT LIMITED TO THE WARRANTIES OF\n * MERCHANTABILITY, FITNESS FOR A PARTICULAR PURPOSE AND NONINFRINGEMENT.\n * IN NO EVENT SHALL THE AUTHORS OR COPYRIGHT HOLDERS BE LIABLE FOR ANY\n * CLAIM, DAMAGES OR OTHER LIABILITY, WHETHER IN AN ACTION OF CONTRACT,\n * TORT OR OTHERWISE, ARISING FROM, OUT OF OR IN CONNECTION WITH THE\n * SOFTWARE OR THE USE OR OTHER DEALINGS IN THE SOFTWARE.\n */\n\nimport \"./WalletMainLib.sol\";\n\nlibrary WalletAdminLib {\n  using WalletMainLib for WalletMainLib.WalletData;\n\n  /*Events*/\n  event LogTransactionConfirmed(bytes32 txid, address sender, uint256 confirmsNeeded);\n  event LogOwnerAdded(address newOwner);\n  event LogOwnerRemoved(address ownerRemoved);\n  event LogOwnerChanged(address from, address to);\n  event LogRequirementChange(uint256 newRequired);\n  event LogThresholdChange(address token, uint256 newThreshold);\n  event LogErrorMsg(uint256 amount, string msg);\n\n  /*Checks*/\n\n  /// @dev Validates arguments for changeOwner function\n  /// @param _from Index of current owner removing\n  /// @param _to Index of new potential owner, should be 0\n  /// @return Returns true if check passes, false otherwise\n  function checkChangeOwnerArgs(uint256 _from, uint256 _to)\n           private returns (bool)\n  {\n    if(_from == 0){\n      emit LogErrorMsg(_from, \"Change from address is not an owner\");\n      return false;\n    }\n    if(_to != 0){\n      emit LogErrorMsg(_to, \"Change to address is an owner\");\n      return false;\n    }\n    return true;\n  }\n\n  /// @dev Validates arguments for addOwner function\n  /// @param _index Index of new owner, should be 0\n  /// @param _length Current length of owner array\n  /// @return Returns true if check passes, false otherwise\n  function checkNewOwnerArgs(uint256 _index, uint256 _length, uint256 _max)\n           private returns (bool)\n  {\n    if(_index != 0){\n      emit LogErrorMsg(_index, \"New owner already owner\");\n      return false;\n    }\n    if((_length + 1) > _max){\n      emit LogErrorMsg(_length, \"Too many owners\");\n      return false;\n    }\n    return true;\n  }\n\n  /// @dev Validates arguments for removeOwner function\n  /// @param _index Index of owner removing\n  /// @param _length Current number of owners\n  /// @param _min Minimum owners currently required to meet sig requirements\n  /// @return Returs true if check passes, false otherwise\n  function checkRemoveOwnerArgs(uint256 _index, uint256 _length, uint256 _min)\n           private returns (bool)\n  {\n    if(_index == 0){\n      emit LogErrorMsg(_index, \"Owner removing not an owner\");\n      return false;\n    }\n    if(_length - 2 < _min) {\n      emit LogErrorMsg(_index, \"Must reduce requiredAdmin first\");\n      return false;\n    }\n    return true;\n  }\n\n  /// @dev Validates arguments for changing any of the sig requirement parameters\n  /// @param _newRequired The new sig requirement\n  /// @param _length Current number of owners\n  /// @return Returns true if checks pass, false otherwise\n  function checkRequiredChange(uint256 _newRequired, uint256 _length)\n           private returns (bool)\n  {\n    if(_newRequired == 0){\n      emit LogErrorMsg(_newRequired, \"Cant reduce to 0\");\n      return false;\n    }\n    if(_length - 2 < _newRequired){\n      emit LogErrorMsg(_length, \"Making requirement too high\");\n      return false;\n    }\n    return true;\n  }\n\n  /*Utility Functions*/\n\n  /// @dev Used later to calculate the number of confirmations needed for tx\n  /// @param _required Number of sigs required\n  /// @param _count Current number of sigs\n  function calcConfirmsNeeded(uint256 _required, uint256 _count) private pure returns (uint256) {\n    return _required - _count;\n  }\n\n  /*Administrative Functions*/\n\n  /// @dev Changes owner address to a new address\n  /// @param self Wallet in contract storage\n  /// @param _from Current owner address\n  /// @param _to New address\n  /// @param _confirm True if confirming, false if revoking confirmation\n  /// @param _data Message data passed from wallet contract\n  /// @return bool Returns true if successful, false otherwise\n  /// @return bytes32 Returns the tx ID, can be used for confirm/revoke functions\n  function changeOwner(WalletMainLib.WalletData storage self,\n                       address _from,\n                       address _to,\n                       bool _confirm,\n                       bytes _data)\n                       public\n                       returns (bool,bytes32)\n  {\n    bytes32 _id = keccak256(\"changeOwner\",_from,_to);\n    uint256 _txIndex = self.transactionInfo[_id].length;\n    bool allGood;\n\n    if(msg.sender != address(this)){\n      if(!_confirm) {\n        allGood = self.revokeConfirm(_id);\n        return (allGood,_id);\n      } else {\n        if(_txIndex == 0 || self.transactionInfo[_id][_txIndex - 1].success){\n          require(self.ownerIndex[msg.sender] > 0);\n          allGood = checkChangeOwnerArgs(self.ownerIndex[_from], self.ownerIndex[_to]);\n          if(!allGood)\n            return (false,0);\n\n          self.transactionInfo[_id].length++;\n          self.transactionInfo[_id][_txIndex].confirmRequired = self.requiredAdmin;\n          self.transactionInfo[_id][_txIndex].day = now / 1 days;\n          self.transactions[now / 1 days].push(_id);\n        } else {\n          _txIndex--;\n          allGood = self.checkNotConfirmed(_id, _txIndex);\n          if(!allGood)\n            return (false,_id);\n        }\n      }\n      self.transactionInfo[_id][_txIndex].confirmedOwners.push(uint256(msg.sender));\n      self.transactionInfo[_id][_txIndex].confirmCount++;\n    } else {\n      _txIndex--;\n    }\n\n    if(self.transactionInfo[_id][_txIndex].confirmCount ==\n       self.transactionInfo[_id][_txIndex].confirmRequired)\n    {\n      self.transactionInfo[_id][_txIndex].success = true;\n      uint256 i = self.ownerIndex[_from];\n      self.ownerIndex[_from] = 0;\n      self.owners[i] = _to;\n      self.ownerIndex[_to] = i;\n      delete self.transactionInfo[_id][_txIndex].data;\n      emit LogOwnerChanged(_from, _to);\n    } else {\n      if(self.transactionInfo[_id][_txIndex].data.length == 0)\n        self.transactionInfo[_id][_txIndex].data = _data;\n\n      uint256 confirmsNeeded = calcConfirmsNeeded(self.transactionInfo[_id][_txIndex].confirmRequired,\n                                               self.transactionInfo[_id][_txIndex].confirmCount);\n\n      emit LogTransactionConfirmed(_id, msg.sender, confirmsNeeded);\n    }\n\n    return (true,_id);\n\t}\n\n  /// @dev Adds owner to wallet\n  /// @param self Wallet in contract storage\n  /// @param _newOwner Address for new owner\n  /// @param _confirm True if confirming, false if revoking confirmation\n  /// @param _data Message data passed from wallet contract\n  /// @return bool Returns true if successful, false otherwise\n  /// @return bytes32 Returns the tx ID, can be used for confirm/revoke functions\n  function addOwner(WalletMainLib.WalletData storage self,\n                    address _newOwner,\n                    bool _confirm,\n                    bytes _data)\n                    public\n                    returns (bool,bytes32)\n  {\n    bytes32 _id = keccak256(\"addOwner\",_newOwner);\n    uint256 _txIndex = self.transactionInfo[_id].length;\n    bool allGood;\n\n    if(msg.sender != address(this)){\n      require(_newOwner != 0);\n\n      if(!_confirm) {\n        allGood = self.revokeConfirm(_id);\n        return (allGood,_id);\n      } else {\n        if(_txIndex == 0 || self.transactionInfo[_id][_txIndex - 1].success){\n          require(self.ownerIndex[msg.sender] > 0);\n          allGood = checkNewOwnerArgs(self.ownerIndex[_newOwner],\n                                      self.owners.length,\n                                      self.maxOwners);\n          if(!allGood)\n            return (false,0);\n\n          self.transactionInfo[_id].length++;\n          self.transactionInfo[_id][_txIndex].confirmRequired = self.requiredAdmin;\n          self.transactionInfo[_id][_txIndex].day = now / 1 days;\n          self.transactions[now / 1 days].push(_id);\n        } else {\n          _txIndex--;\n          allGood = self.checkNotConfirmed(_id, _txIndex);\n          if(!allGood)\n            return (false,_id);\n        }\n      }\n\n      self.transactionInfo[_id][_txIndex].confirmedOwners.push(uint256(msg.sender));\n      self.transactionInfo[_id][_txIndex].confirmCount++;\n    } else {\n      _txIndex--;\n    }\n\n    if(self.transactionInfo[_id][_txIndex].confirmCount ==\n       self.transactionInfo[_id][_txIndex].confirmRequired)\n    {\n      self.transactionInfo[_id][_txIndex].success = true;\n      self.owners.push(_newOwner);\n      self.ownerIndex[_newOwner] = self.owners.length - 1;\n      delete self.transactionInfo[_id][_txIndex].data;\n      emit LogOwnerAdded(_newOwner);\n    } else {\n      if(self.transactionInfo[_id][_txIndex].data.length == 0)\n        self.transactionInfo[_id][_txIndex].data = _data;\n\n      uint256 confirmsNeeded = calcConfirmsNeeded(self.transactionInfo[_id][_txIndex].confirmRequired,\n                                               self.transactionInfo[_id][_txIndex].confirmCount);\n      emit LogTransactionConfirmed(_id, msg.sender, confirmsNeeded);\n    }\n\n    return (true,_id);\n\t}\n\n  /// @dev Removes owner from wallet\n  /// @param self Wallet in contract storage\n  /// @param _ownerRemoving Address of owner to be removed\n  /// @param _confirm True if confirming, false if revoking confirmation\n  /// @param _data Message data passed from wallet contract\n  /// @return bool Returns true if successful, false otherwise\n  /// @return bytes32 Returns the tx ID, can be used for confirm/revoke functions\n  function removeOwner(WalletMainLib.WalletData storage self,\n                       address _ownerRemoving,\n                       bool _confirm,\n                       bytes _data)\n                       public\n                       returns (bool,bytes32)\n  {\n    bytes32 _id = keccak256(\"removeOwner\",_ownerRemoving);\n    uint256 _txIndex = self.transactionInfo[_id].length;\n    bool allGood;\n\n    if(msg.sender != address(this)){\n      if(!_confirm) {\n        allGood = self.revokeConfirm(_id);\n        return (allGood,_id);\n      } else {\n        if(_txIndex == 0 || self.transactionInfo[_id][_txIndex - 1].success){\n          require(self.ownerIndex[msg.sender] > 0);\n          allGood = checkRemoveOwnerArgs(self.ownerIndex[_ownerRemoving],\n                                         self.owners.length,\n                                         self.requiredAdmin);\n          if(!allGood)\n            return (false,0);\n\n          self.transactionInfo[_id].length++;\n          self.transactionInfo[_id][_txIndex].confirmRequired = self.requiredAdmin;\n          self.transactionInfo[_id][_txIndex].day = now / 1 days;\n          self.transactions[now / 1 days].push(_id);\n        } else {\n          _txIndex--;\n          allGood = self.checkNotConfirmed(_id, _txIndex);\n          if(!allGood)\n            return (false,_id);\n        }\n      }\n\n      self.transactionInfo[_id][_txIndex].confirmedOwners.push(uint256(msg.sender));\n      self.transactionInfo[_id][_txIndex].confirmCount++;\n    } else {\n      _txIndex--;\n    }\n\n    if(self.transactionInfo[_id][_txIndex].confirmCount ==\n       self.transactionInfo[_id][_txIndex].confirmRequired)\n    {\n      self.transactionInfo[_id][_txIndex].success = true;\n      self.owners[self.ownerIndex[_ownerRemoving]] = self.owners[self.owners.length - 1];\n      self.ownerIndex[self.owners[self.owners.length - 1]] = self.ownerIndex[_ownerRemoving];\n      self.ownerIndex[_ownerRemoving] = 0;\n      self.owners.length--;\n      delete self.transactionInfo[_id][_txIndex].data;\n      emit LogOwnerRemoved(_ownerRemoving);\n    } else {\n      if(self.transactionInfo[_id][_txIndex].data.length == 0)\n        self.transactionInfo[_id][_txIndex].data = _data;\n\n      uint256 confirmsNeeded = calcConfirmsNeeded(self.transactionInfo[_id][_txIndex].confirmRequired,\n                                               self.transactionInfo[_id][_txIndex].confirmCount);\n      emit LogTransactionConfirmed(_id, msg.sender, confirmsNeeded);\n    }\n\n    return (true,_id);\n\t}\n\n  /// @dev Changes required sigs to change wallet parameters\n  /// @param self Wallet in contract storage\n  /// @param _requiredAdmin The new signature requirement\n  /// @param _confirm True if confirming, false if revoking confirmation\n  /// @param _data Message data passed from wallet contract\n  /// @return bool Returns true if successful, false otherwise\n  /// @return bytes32 Returns the tx ID, can be used for confirm/revoke functions\n  function changeRequiredAdmin(WalletMainLib.WalletData storage self,\n                               uint256 _requiredAdmin,\n                               bool _confirm,\n                               bytes _data)\n                               public\n                               returns (bool,bytes32)\n  {\n    bytes32 _id = keccak256(\"changeRequiredAdmin\",_requiredAdmin);\n    uint256 _txIndex = self.transactionInfo[_id].length;\n\n    if(msg.sender != address(this)){\n      bool allGood;\n\n      if(!_confirm) {\n        allGood = self.revokeConfirm(_id);\n        return (allGood,_id);\n      } else {\n        if(_txIndex == 0 || self.transactionInfo[_id][_txIndex - 1].success){\n          require(self.ownerIndex[msg.sender] > 0);\n          allGood = checkRequiredChange(_requiredAdmin, self.owners.length);\n          if(!allGood)\n            return (false,0);\n\n          self.transactionInfo[_id].length++;\n          self.transactionInfo[_id][_txIndex].confirmRequired = self.requiredAdmin;\n          self.transactionInfo[_id][_txIndex].day = now / 1 days;\n          self.transactions[now / 1 days].push(_id);\n        } else {\n          _txIndex--;\n          allGood = self.checkNotConfirmed(_id, _txIndex);\n          if(!allGood)\n            return (false,_id);\n        }\n      }\n\n      self.transactionInfo[_id][_txIndex].confirmedOwners.push(uint256(msg.sender));\n      self.transactionInfo[_id][_txIndex].confirmCount++;\n    } else {\n      _txIndex--;\n    }\n\n    if(self.transactionInfo[_id][_txIndex].confirmCount ==\n      self.transactionInfo[_id][_txIndex].confirmRequired)\n    {\n      self.transactionInfo[_id][_txIndex].success = true;\n      self.requiredAdmin = _requiredAdmin;\n      delete self.transactionInfo[_id][_txIndex].data;\n      emit LogRequirementChange(_requiredAdmin);\n    } else {\n      if(self.transactionInfo[_id][_txIndex].data.length == 0)\n        self.transactionInfo[_id][_txIndex].data = _data;\n\n      uint256 confirmsNeeded = calcConfirmsNeeded(self.transactionInfo[_id][_txIndex].confirmRequired,\n                                               self.transactionInfo[_id][_txIndex].confirmCount);\n      emit LogTransactionConfirmed(_id, msg.sender, confirmsNeeded);\n    }\n\n    return (true,_id);\n\t}\n\n  /// @dev Changes required sigs for major transactions\n  /// @param self Wallet in contract storage\n  /// @param _requiredMajor The new signature requirement\n  /// @param _confirm True if confirming, false if revoking confirmation\n  /// @param _data Message data passed from wallet contract\n  /// @return bool Returns true if successful, false otherwise\n  /// @return bytes32 Returns the tx ID, can be used for confirm/revoke functions\n  function changeRequiredMajor(WalletMainLib.WalletData storage self,\n                               uint256 _requiredMajor,\n                               bool _confirm,\n                               bytes _data)\n                               public\n                               returns (bool,bytes32)\n  {\n    bytes32 _id = keccak256(\"changeRequiredMajor\",_requiredMajor);\n    uint256 _txIndex = self.transactionInfo[_id].length;\n\n    if(msg.sender != address(this)){\n      bool allGood;\n\n      if(!_confirm) {\n        allGood = self.revokeConfirm(_id);\n        return (allGood,_id);\n      } else {\n        if(_txIndex == 0 || self.transactionInfo[_id][_txIndex - 1].success){\n          require(self.ownerIndex[msg.sender] > 0);\n          allGood = checkRequiredChange(_requiredMajor, self.owners.length);\n          if(!allGood)\n            return (false,0);\n\n          self.transactionInfo[_id].length++;\n          self.transactionInfo[_id][_txIndex].confirmRequired = self.requiredAdmin;\n          self.transactionInfo[_id][_txIndex].day = now / 1 days;\n          self.transactions[now / 1 days].push(_id);\n        } else {\n          _txIndex--;\n          allGood = self.checkNotConfirmed(_id, _txIndex);\n          if(!allGood)\n            return (false,_id);\n        }\n      }\n\n      self.transactionInfo[_id][_txIndex].confirmedOwners.push(uint256(msg.sender));\n      self.transactionInfo[_id][_txIndex].confirmCount++;\n    } else {\n      _txIndex--;\n    }\n\n    if(self.transactionInfo[_id][_txIndex].confirmCount ==\n       self.transactionInfo[_id][_txIndex].confirmRequired)\n    {\n      self.transactionInfo[_id][_txIndex].success = true;\n      self.requiredMajor = _requiredMajor;\n      delete self.transactionInfo[_id][_txIndex].data;\n      emit LogRequirementChange(_requiredMajor);\n    } else {\n      if(self.transactionInfo[_id][_txIndex].data.length == 0)\n        self.transactionInfo[_id][_txIndex].data = _data;\n\n      uint256 confirmsNeeded = calcConfirmsNeeded(self.transactionInfo[_id][_txIndex].confirmRequired,\n                                               self.transactionInfo[_id][_txIndex].confirmCount);\n      emit LogTransactionConfirmed(_id, msg.sender, confirmsNeeded);\n    }\n\n    return (true,_id);\n\t}\n\n  /// @dev Changes required sigs for minor transactions\n  /// @param self Wallet in contract storage\n  /// @param _requiredMinor The new signature requirement\n  /// @param _confirm True if confirming, false if revoking confirmation\n  /// @param _data Message data passed from wallet contract\n  /// @return bool Returns true if successful, false otherwise\n  /// @return bytes32 Returns the tx ID, can be used for confirm/revoke functions\n  function changeRequiredMinor(WalletMainLib.WalletData storage self,\n                               uint256 _requiredMinor,\n                               bool _confirm,\n                               bytes _data)\n                               public\n                               returns (bool,bytes32)\n  {\n    bytes32 _id = keccak256(\"changeRequiredMinor\",_requiredMinor);\n    uint256 _txIndex = self.transactionInfo[_id].length;\n\n    if(msg.sender != address(this)){\n      bool allGood;\n\n      if(!_confirm) {\n        allGood = self.revokeConfirm(_id);\n        return (allGood,_id);\n      } else {\n        if(_txIndex == 0 || self.transactionInfo[_id][_txIndex - 1].success){\n          require(self.ownerIndex[msg.sender] > 0);\n          allGood = checkRequiredChange(_requiredMinor, self.owners.length);\n          if(!allGood)\n            return (false,0);\n\n          self.transactionInfo[_id].length++;\n          self.transactionInfo[_id][_txIndex].confirmRequired = self.requiredAdmin;\n          self.transactionInfo[_id][_txIndex].day = now / 1 days;\n          self.transactions[now / 1 days].push(_id);\n        } else {\n          _txIndex--;\n          allGood = self.checkNotConfirmed(_id, _txIndex);\n          if(!allGood)\n            return (false,_id);\n        }\n      }\n\n      self.transactionInfo[_id][_txIndex].confirmedOwners.push(uint256(msg.sender));\n      self.transactionInfo[_id][_txIndex].confirmCount++;\n    } else {\n      _txIndex--;\n    }\n\n    if(self.transactionInfo[_id][_txIndex].confirmCount ==\n       self.transactionInfo[_id][_txIndex].confirmRequired)\n    {\n      self.transactionInfo[_id][_txIndex].success = true;\n      self.requiredMinor = _requiredMinor;\n      delete self.transactionInfo[_id][_txIndex].data;\n      emit LogRequirementChange(_requiredMinor);\n    } else {\n      if(self.transactionInfo[_id][_txIndex].data.length == 0)\n        self.transactionInfo[_id][_txIndex].data = _data;\n\n      uint256 confirmsNeeded = calcConfirmsNeeded(self.transactionInfo[_id][_txIndex].confirmRequired,\n                                               self.transactionInfo[_id][_txIndex].confirmCount);\n      emit LogTransactionConfirmed(_id, msg.sender, confirmsNeeded);\n    }\n\n    return (true,_id);\n\t}\n\n  /// @dev Changes threshold for major transaction day spend per token\n  /// @param self Wallet in contract storage\n  /// @param _token Address of token, ether is 0\n  /// @param _majorThreshold New threshold\n  /// @param _confirm True if confirming, false if revoking confirmation\n  /// @param _data Message data passed from wallet contract\n  /// @return bool Returns true if successful, false otherwise\n  /// @return bytes32 Returns the tx ID, can be used for confirm/revoke functions\n  function changeMajorThreshold(WalletMainLib.WalletData storage self,\n                                address _token,\n                                uint256 _majorThreshold,\n                                bool _confirm,\n                                bytes _data)\n                                public\n                                returns (bool,bytes32)\n  {\n    bytes32 _id = keccak256(\"changeMajorThreshold\", _token, _majorThreshold);\n    uint256 _txIndex = self.transactionInfo[_id].length;\n\n    if(msg.sender != address(this)){\n      bool allGood;\n\n      if(!_confirm) {\n        allGood = self.revokeConfirm(_id);\n        return (allGood,_id);\n      } else {\n        if(_txIndex == 0 || self.transactionInfo[_id][_txIndex - 1].success){\n          require(self.ownerIndex[msg.sender] > 0);\n\n          self.transactionInfo[_id].length++;\n          self.transactionInfo[_id][_txIndex].confirmRequired = self.requiredAdmin;\n          self.transactionInfo[_id][_txIndex].day = now / 1 days;\n          self.transactions[now / 1 days].push(_id);\n        } else {\n          _txIndex--;\n          allGood = self.checkNotConfirmed(_id, _txIndex);\n          if(!allGood)\n            return (false,_id);\n        }\n      }\n\n      self.transactionInfo[_id][_txIndex].confirmedOwners.push(uint256(msg.sender));\n      self.transactionInfo[_id][_txIndex].confirmCount++;\n    } else {\n      _txIndex--;\n    }\n\n    if(self.transactionInfo[_id][_txIndex].confirmCount ==\n       self.transactionInfo[_id][_txIndex].confirmRequired)\n    {\n      self.transactionInfo[_id][_txIndex].success = true;\n      self.majorThreshold[_token] = _majorThreshold;\n      delete self.transactionInfo[_id][_txIndex].data;\n      emit LogThresholdChange(_token, _majorThreshold);\n    } else {\n      if(self.transactionInfo[_id][_txIndex].data.length == 0)\n        self.transactionInfo[_id][_txIndex].data = _data;\n\n      uint256 confirmsNeeded = calcConfirmsNeeded(self.transactionInfo[_id][_txIndex].confirmRequired,\n                                               self.transactionInfo[_id][_txIndex].confirmCount);\n      emit LogTransactionConfirmed(_id, msg.sender, confirmsNeeded);\n    }\n\n    return (true,_id);\n\t}\n}\n",
  "sourcePath": "/Users/hackdom/Projects/ethereum-libraries-wallet/contracts/WalletAdminLib.sol",
  "compiler": {
    "name": "solc",
    "version": "0.4.21+commit.dfe3193c.Emscripten.clang"
  },
  "schemaVersion": "2.0.0",
  "updatedAt": "2018-04-13T20:46:33.612Z"
}